{
  "_format": "hh-sol-artifact-1",
  "contractName": "Ticket",
  "sourceName": "contracts/Ticket.sol",
  "abi": [
    {
      "inputs": [
        {
          "internalType": "string",
          "name": "name",
          "type": "string"
        },
        {
          "internalType": "string",
          "name": "symb",
          "type": "string"
        },
        {
          "internalType": "string",
          "name": "_place",
          "type": "string"
        },
        {
          "internalType": "uint256",
          "name": "_price",
          "type": "uint256"
        },
        {
          "internalType": "uint256",
          "name": "tickets",
          "type": "uint256"
        },
        {
          "internalType": "string",
          "name": "_uri",
          "type": "string"
        }
      ],
      "stateMutability": "nonpayable",
      "type": "constructor"
    },
    {
      "anonymous": false,
      "inputs": [
        {
          "indexed": true,
          "internalType": "address",
          "name": "owner",
          "type": "address"
        },
        {
          "indexed": true,
          "internalType": "address",
          "name": "approved",
          "type": "address"
        },
        {
          "indexed": true,
          "internalType": "uint256",
          "name": "tokenId",
          "type": "uint256"
        }
      ],
      "name": "Approval",
      "type": "event"
    },
    {
      "anonymous": false,
      "inputs": [
        {
          "indexed": true,
          "internalType": "address",
          "name": "owner",
          "type": "address"
        },
        {
          "indexed": true,
          "internalType": "address",
          "name": "operator",
          "type": "address"
        },
        {
          "indexed": false,
          "internalType": "bool",
          "name": "approved",
          "type": "bool"
        }
      ],
      "name": "ApprovalForAll",
      "type": "event"
    },
    {
      "anonymous": false,
      "inputs": [
        {
          "indexed": true,
          "internalType": "address",
          "name": "previousOwner",
          "type": "address"
        },
        {
          "indexed": true,
          "internalType": "address",
          "name": "newOwner",
          "type": "address"
        }
      ],
      "name": "OwnershipTransferred",
      "type": "event"
    },
    {
      "anonymous": false,
      "inputs": [
        {
          "indexed": true,
          "internalType": "address",
          "name": "from",
          "type": "address"
        },
        {
          "indexed": true,
          "internalType": "address",
          "name": "to",
          "type": "address"
        },
        {
          "indexed": true,
          "internalType": "uint256",
          "name": "tokenId",
          "type": "uint256"
        }
      ],
      "name": "Transfer",
      "type": "event"
    },
    {
      "inputs": [
        {
          "internalType": "address",
          "name": "to",
          "type": "address"
        },
        {
          "internalType": "uint256",
          "name": "tokenId",
          "type": "uint256"
        }
      ],
      "name": "approve",
      "outputs": [],
      "stateMutability": "nonpayable",
      "type": "function"
    },
    {
      "inputs": [
        {
          "internalType": "address",
          "name": "owner",
          "type": "address"
        }
      ],
      "name": "balanceOf",
      "outputs": [
        {
          "internalType": "uint256",
          "name": "",
          "type": "uint256"
        }
      ],
      "stateMutability": "view",
      "type": "function"
    },
    {
      "inputs": [
        {
          "internalType": "string",
          "name": "newPlace",
          "type": "string"
        }
      ],
      "name": "changePlace",
      "outputs": [],
      "stateMutability": "nonpayable",
      "type": "function"
    },
    {
      "inputs": [],
      "name": "contractOwner",
      "outputs": [
        {
          "internalType": "address payable",
          "name": "",
          "type": "address"
        }
      ],
      "stateMutability": "view",
      "type": "function"
    },
    {
      "inputs": [
        {
          "internalType": "uint256",
          "name": "tokenId",
          "type": "uint256"
        }
      ],
      "name": "getApproved",
      "outputs": [
        {
          "internalType": "address",
          "name": "",
          "type": "address"
        }
      ],
      "stateMutability": "view",
      "type": "function"
    },
    {
      "inputs": [],
      "name": "getPlace",
      "outputs": [
        {
          "internalType": "string",
          "name": "",
          "type": "string"
        }
      ],
      "stateMutability": "view",
      "type": "function"
    },
    {
      "inputs": [],
      "name": "getPrice",
      "outputs": [
        {
          "internalType": "uint256",
          "name": "",
          "type": "uint256"
        }
      ],
      "stateMutability": "view",
      "type": "function"
    },
    {
      "inputs": [],
      "name": "getStock",
      "outputs": [
        {
          "internalType": "uint256",
          "name": "",
          "type": "uint256"
        }
      ],
      "stateMutability": "view",
      "type": "function"
    },
    {
      "inputs": [],
      "name": "getUri",
      "outputs": [
        {
          "internalType": "string",
          "name": "",
          "type": "string"
        }
      ],
      "stateMutability": "view",
      "type": "function"
    },
    {
      "inputs": [
        {
          "internalType": "address",
          "name": "owner",
          "type": "address"
        },
        {
          "internalType": "address",
          "name": "operator",
          "type": "address"
        }
      ],
      "name": "isApprovedForAll",
      "outputs": [
        {
          "internalType": "bool",
          "name": "",
          "type": "bool"
        }
      ],
      "stateMutability": "view",
      "type": "function"
    },
    {
      "inputs": [],
      "name": "name",
      "outputs": [
        {
          "internalType": "string",
          "name": "",
          "type": "string"
        }
      ],
      "stateMutability": "view",
      "type": "function"
    },
    {
      "inputs": [],
      "name": "owner",
      "outputs": [
        {
          "internalType": "address",
          "name": "",
          "type": "address"
        }
      ],
      "stateMutability": "view",
      "type": "function"
    },
    {
      "inputs": [
        {
          "internalType": "uint256",
          "name": "tokenId",
          "type": "uint256"
        }
      ],
      "name": "ownerOf",
      "outputs": [
        {
          "internalType": "address",
          "name": "",
          "type": "address"
        }
      ],
      "stateMutability": "view",
      "type": "function"
    },
    {
      "inputs": [],
      "name": "place",
      "outputs": [
        {
          "internalType": "string",
          "name": "",
          "type": "string"
        }
      ],
      "stateMutability": "view",
      "type": "function"
    },
    {
      "inputs": [],
      "name": "price",
      "outputs": [
        {
          "internalType": "uint256",
          "name": "",
          "type": "uint256"
        }
      ],
      "stateMutability": "view",
      "type": "function"
    },
    {
      "inputs": [],
      "name": "renounceOwnership",
      "outputs": [],
      "stateMutability": "nonpayable",
      "type": "function"
    },
    {
      "inputs": [],
      "name": "safeMint",
      "outputs": [],
      "stateMutability": "payable",
      "type": "function"
    },
    {
      "inputs": [
        {
          "internalType": "address",
          "name": "from",
          "type": "address"
        },
        {
          "internalType": "address",
          "name": "to",
          "type": "address"
        },
        {
          "internalType": "uint256",
          "name": "tokenId",
          "type": "uint256"
        }
      ],
      "name": "safeTransferFrom",
      "outputs": [],
      "stateMutability": "nonpayable",
      "type": "function"
    },
    {
      "inputs": [
        {
          "internalType": "address",
          "name": "from",
          "type": "address"
        },
        {
          "internalType": "address",
          "name": "to",
          "type": "address"
        },
        {
          "internalType": "uint256",
          "name": "tokenId",
          "type": "uint256"
        },
        {
          "internalType": "bytes",
          "name": "_data",
          "type": "bytes"
        }
      ],
      "name": "safeTransferFrom",
      "outputs": [],
      "stateMutability": "nonpayable",
      "type": "function"
    },
    {
      "inputs": [
        {
          "internalType": "address",
          "name": "operator",
          "type": "address"
        },
        {
          "internalType": "bool",
          "name": "approved",
          "type": "bool"
        }
      ],
      "name": "setApprovalForAll",
      "outputs": [],
      "stateMutability": "nonpayable",
      "type": "function"
    },
    {
      "inputs": [
        {
          "internalType": "bytes4",
          "name": "interfaceId",
          "type": "bytes4"
        }
      ],
      "name": "supportsInterface",
      "outputs": [
        {
          "internalType": "bool",
          "name": "",
          "type": "bool"
        }
      ],
      "stateMutability": "view",
      "type": "function"
    },
    {
      "inputs": [],
      "name": "symbol",
      "outputs": [
        {
          "internalType": "string",
          "name": "",
          "type": "string"
        }
      ],
      "stateMutability": "view",
      "type": "function"
    },
    {
      "inputs": [
        {
          "internalType": "uint256",
          "name": "tokenId",
          "type": "uint256"
        }
      ],
      "name": "tokenURI",
      "outputs": [
        {
          "internalType": "string",
          "name": "",
          "type": "string"
        }
      ],
      "stateMutability": "view",
      "type": "function"
    },
    {
      "inputs": [
        {
          "internalType": "address",
          "name": "from",
          "type": "address"
        },
        {
          "internalType": "address",
          "name": "to",
          "type": "address"
        },
        {
          "internalType": "uint256",
          "name": "tokenId",
          "type": "uint256"
        }
      ],
      "name": "transferFrom",
      "outputs": [],
      "stateMutability": "nonpayable",
      "type": "function"
    },
    {
      "inputs": [
        {
          "internalType": "address",
          "name": "newOwner",
          "type": "address"
        }
      ],
      "name": "transferOwnership",
      "outputs": [],
      "stateMutability": "nonpayable",
      "type": "function"
    }
  ],
  "bytecode": "0x60806040523480156200001157600080fd5b5060405162003d5f38038062003d5f83398181016040528101906200003791906200034e565b858581600090805190602001906200005192919062000215565b5080600190805190602001906200006a92919062000215565b5050506200008d620000816200013160201b60201c565b6200013960201b60201c565b8360099080519060200190620000a592919062000215565b5082600c8190555080600d9080519060200190620000c592919062000215565b5033600a60006101000a81548173ffffffffffffffffffffffffffffffffffffffff021916908373ffffffffffffffffffffffffffffffffffffffff16021790555081600b81905550620001256008620001ff60201b620011af1760201c565b505050505050620005dc565b600033905090565b6000600660009054906101000a900473ffffffffffffffffffffffffffffffffffffffff16905081600660006101000a81548173ffffffffffffffffffffffffffffffffffffffff021916908373ffffffffffffffffffffffffffffffffffffffff1602179055508173ffffffffffffffffffffffffffffffffffffffff168173ffffffffffffffffffffffffffffffffffffffff167f8be0079c531659141344cd1fd0a4f28419497f9722a3daafe3b4186f6b6457e060405160405180910390a35050565b6001816000016000828254019250508190555050565b8280546200022390620004e7565b90600052602060002090601f01602090048101928262000247576000855562000293565b82601f106200026257805160ff191683800117855562000293565b8280016001018555821562000293579182015b828111156200029257825182559160200191906001019062000275565b5b509050620002a29190620002a6565b5090565b5b80821115620002c1576000816000905550600101620002a7565b5090565b6000620002dc620002d68462000471565b62000448565b905082815260208101848484011115620002f557600080fd5b62000302848285620004b1565b509392505050565b600082601f8301126200031c57600080fd5b81516200032e848260208601620002c5565b91505092915050565b6000815190506200034881620005c2565b92915050565b60008060008060008060c087890312156200036857600080fd5b600087015167ffffffffffffffff8111156200038357600080fd5b6200039189828a016200030a565b965050602087015167ffffffffffffffff811115620003af57600080fd5b620003bd89828a016200030a565b955050604087015167ffffffffffffffff811115620003db57600080fd5b620003e989828a016200030a565b9450506060620003fc89828a0162000337565b93505060806200040f89828a0162000337565b92505060a087015167ffffffffffffffff8111156200042d57600080fd5b6200043b89828a016200030a565b9150509295509295509295565b60006200045462000467565b90506200046282826200051d565b919050565b6000604051905090565b600067ffffffffffffffff8211156200048f576200048e62000582565b5b6200049a82620005b1565b9050602081019050919050565b6000819050919050565b60005b83811015620004d1578082015181840152602081019050620004b4565b83811115620004e1576000848401525b50505050565b600060028204905060018216806200050057607f821691505b6020821081141562000517576200051662000553565b5b50919050565b6200052882620005b1565b810181811067ffffffffffffffff821117156200054a576200054962000582565b5b80604052505050565b7f4e487b7100000000000000000000000000000000000000000000000000000000600052602260045260246000fd5b7f4e487b7100000000000000000000000000000000000000000000000000000000600052604160045260246000fd5b6000601f19601f8301169050919050565b620005cd81620004a7565b8114620005d957600080fd5b50565b61377380620005ec6000396000f3fe6080604052600436106101665760003560e01c80638da5cb5b116100d1578063b88d4fde1161008a578063ce606ee011610064578063ce606ee01461050b578063e38ffcd814610536578063e985e9c514610561578063f2fde38b1461059e57610166565b8063b88d4fde1461047a578063c87b56dd146104a3578063cb85b02d146104e057610166565b80638da5cb5b1461037a57806393cca918146103a557806395d89b41146103d057806398d5fdca146103fb578063a035b1fe14610426578063a22cb4651461045157610166565b80634e16fc8b116101235780634e16fc8b1461028b5780636352211e146102b65780636871ee40146102f357806370a08231146102fd578063715018a61461033a5780637c12e93f1461035157610166565b806301ffc9a71461016b57806306fdde03146101a8578063081812fc146101d3578063095ea7b31461021057806323b872dd1461023957806342842e0e14610262575b600080fd5b34801561017757600080fd5b50610192600480360381019061018d9190612605565b6105c7565b60405161019f9190612adf565b60405180910390f35b3480156101b457600080fd5b506101bd6106a9565b6040516101ca9190612afa565b60405180910390f35b3480156101df57600080fd5b506101fa60048036038101906101f59190612698565b61073b565b6040516102079190612a5d565b60405180910390f35b34801561021c57600080fd5b50610237600480360381019061023291906125c9565b6107c0565b005b34801561024557600080fd5b50610260600480360381019061025b91906124c3565b6108d8565b005b34801561026e57600080fd5b50610289600480360381019061028491906124c3565b610938565b005b34801561029757600080fd5b506102a0610958565b6040516102ad9190612afa565b60405180910390f35b3480156102c257600080fd5b506102dd60048036038101906102d89190612698565b6109ea565b6040516102ea9190612a5d565b60405180910390f35b6102fb610a9c565b005b34801561030957600080fd5b50610324600480360381019061031f919061245e565b610b70565b6040516103319190612d7c565b60405180910390f35b34801561034657600080fd5b5061034f610c28565b005b34801561035d57600080fd5b5061037860048036038101906103739190612657565b610cb0565b005b34801561038657600080fd5b5061038f610d46565b60405161039c9190612a5d565b60405180910390f35b3480156103b157600080fd5b506103ba610d70565b6040516103c79190612afa565b60405180910390f35b3480156103dc57600080fd5b506103e5610dfe565b6040516103f29190612afa565b60405180910390f35b34801561040757600080fd5b50610410610e90565b60405161041d9190612d7c565b60405180910390f35b34801561043257600080fd5b5061043b610e9a565b6040516104489190612d7c565b60405180910390f35b34801561045d57600080fd5b506104786004803603810190610473919061258d565b610ea0565b005b34801561048657600080fd5b506104a1600480360381019061049c9190612512565b610eb6565b005b3480156104af57600080fd5b506104ca60048036038101906104c59190612698565b610f18565b6040516104d79190612afa565b60405180910390f35b3480156104ec57600080fd5b506104f5610f2a565b6040516105029190612afa565b60405180910390f35b34801561051757600080fd5b50610520610fbc565b60405161052d9190612a78565b60405180910390f35b34801561054257600080fd5b5061054b610fe2565b6040516105589190612d7c565b60405180910390f35b34801561056d57600080fd5b5061058860048036038101906105839190612487565b611023565b6040516105959190612adf565b60405180910390f35b3480156105aa57600080fd5b506105c560048036038101906105c0919061245e565b6110b7565b005b60007f80ac58cd000000000000000000000000000000000000000000000000000000007bffffffffffffffffffffffffffffffffffffffffffffffffffffffff1916827bffffffffffffffffffffffffffffffffffffffffffffffffffffffff1916148061069257507f5b5e139f000000000000000000000000000000000000000000000000000000007bffffffffffffffffffffffffffffffffffffffffffffffffffffffff1916827bffffffffffffffffffffffffffffffffffffffffffffffffffffffff1916145b806106a257506106a1826111c5565b5b9050919050565b6060600080546106b89061303e565b80601f01602080910402602001604051908101604052809291908181526020018280546106e49061303e565b80156107315780601f1061070657610100808354040283529160200191610731565b820191906000526020600020905b81548152906001019060200180831161071457829003601f168201915b5050505050905090565b60006107468261122f565b610785576040517f08c379a000000000000000000000000000000000000000000000000000000000815260040161077c90612c9c565b60405180910390fd5b6004600083815260200190815260200160002060009054906101000a900473ffffffffffffffffffffffffffffffffffffffff169050919050565b60006107cb826109ea565b90508073ffffffffffffffffffffffffffffffffffffffff168373ffffffffffffffffffffffffffffffffffffffff16141561083c576040517f08c379a000000000000000000000000000000000000000000000000000000000815260040161083390612d1c565b60405180910390fd5b8073ffffffffffffffffffffffffffffffffffffffff1661085b61129b565b73ffffffffffffffffffffffffffffffffffffffff16148061088a57506108898161088461129b565b611023565b5b6108c9576040517f08c379a00000000000000000000000000000000000000000000000000000000081526004016108c090612bfc565b60405180910390fd5b6108d383836112a3565b505050565b6108e96108e361129b565b8261135c565b610928576040517f08c379a000000000000000000000000000000000000000000000000000000000815260040161091f90612d3c565b60405180910390fd5b61093383838361143a565b505050565b61095383838360405180602001604052806000815250610eb6565b505050565b6060600d80546109679061303e565b80601f01602080910402602001604051908101604052809291908181526020018280546109939061303e565b80156109e05780601f106109b5576101008083540402835291602001916109e0565b820191906000526020600020905b8154815290600101906020018083116109c357829003601f168201915b5050505050905090565b6000806002600084815260200190815260200160002060009054906101000a900473ffffffffffffffffffffffffffffffffffffffff169050600073ffffffffffffffffffffffffffffffffffffffff168173ffffffffffffffffffffffffffffffffffffffff161415610a93576040517f08c379a0000000000000000000000000000000000000000000000000000000008152600401610a8a90612c3c565b60405180910390fd5b80915050919050565b600c54633b9aca0034610aaf9190612eb7565b14610aef576040517f08c379a0000000000000000000000000000000000000000000000000000000008152600401610ae690612d5c565b60405180910390fd5b6000610afb60086116a1565b905080600b541015610b42576040517f08c379a0000000000000000000000000000000000000000000000000000000008152600401610b3990612cbc565b60405180910390fd5b6000610b4e60086116a1565b9050610b5a33826116af565b610b626116cd565b610b6c60086111af565b5050565b60008073ffffffffffffffffffffffffffffffffffffffff168273ffffffffffffffffffffffffffffffffffffffff161415610be1576040517f08c379a0000000000000000000000000000000000000000000000000000000008152600401610bd890612c1c565b60405180910390fd5b600360008373ffffffffffffffffffffffffffffffffffffffff1673ffffffffffffffffffffffffffffffffffffffff168152602001908152602001600020549050919050565b610c3061129b565b73ffffffffffffffffffffffffffffffffffffffff16610c4e610d46565b73ffffffffffffffffffffffffffffffffffffffff1614610ca4576040517f08c379a0000000000000000000000000000000000000000000000000000000008152600401610c9b90612cdc565b60405180910390fd5b610cae60006117c2565b565b610cb861129b565b73ffffffffffffffffffffffffffffffffffffffff16610cd6610d46565b73ffffffffffffffffffffffffffffffffffffffff1614610d2c576040517f08c379a0000000000000000000000000000000000000000000000000000000008152600401610d2390612cdc565b60405180910390fd5b8060099080519060200190610d42929190612282565b5050565b6000600660009054906101000a900473ffffffffffffffffffffffffffffffffffffffff16905090565b60098054610d7d9061303e565b80601f0160208091040260200160405190810160405280929190818152602001828054610da99061303e565b8015610df65780601f10610dcb57610100808354040283529160200191610df6565b820191906000526020600020905b815481529060010190602001808311610dd957829003601f168201915b505050505081565b606060018054610e0d9061303e565b80601f0160208091040260200160405190810160405280929190818152602001828054610e399061303e565b8015610e865780601f10610e5b57610100808354040283529160200191610e86565b820191906000526020600020905b815481529060010190602001808311610e6957829003601f168201915b5050505050905090565b6000600c54905090565b600c5481565b610eb2610eab61129b565b8383611888565b5050565b610ec7610ec161129b565b8361135c565b610f06576040517f08c379a0000000000000000000000000000000000000000000000000000000008152600401610efd90612d3c565b60405180910390fd5b610f12848484846119f5565b50505050565b6060610f2382611a51565b9050919050565b606060098054610f399061303e565b80601f0160208091040260200160405190810160405280929190818152602001828054610f659061303e565b8015610fb25780601f10610f8757610100808354040283529160200191610fb2565b820191906000526020600020905b815481529060010190602001808311610f9557829003601f168201915b5050505050905090565b600a60009054906101000a900473ffffffffffffffffffffffffffffffffffffffff1681565b600080610fef60086116a1565b905080600b54101561100257600061101d565b600181600b546110129190612f42565b61101c9190612e61565b5b91505090565b6000600560008473ffffffffffffffffffffffffffffffffffffffff1673ffffffffffffffffffffffffffffffffffffffff16815260200190815260200160002060008373ffffffffffffffffffffffffffffffffffffffff1673ffffffffffffffffffffffffffffffffffffffff16815260200190815260200160002060009054906101000a900460ff16905092915050565b6110bf61129b565b73ffffffffffffffffffffffffffffffffffffffff166110dd610d46565b73ffffffffffffffffffffffffffffffffffffffff1614611133576040517f08c379a000000000000000000000000000000000000000000000000000000000815260040161112a90612cdc565b60405180910390fd5b600073ffffffffffffffffffffffffffffffffffffffff168173ffffffffffffffffffffffffffffffffffffffff1614156111a3576040517f08c379a000000000000000000000000000000000000000000000000000000000815260040161119a90612b3c565b60405180910390fd5b6111ac816117c2565b50565b6001816000016000828254019250508190555050565b60007f01ffc9a7000000000000000000000000000000000000000000000000000000007bffffffffffffffffffffffffffffffffffffffffffffffffffffffff1916827bffffffffffffffffffffffffffffffffffffffffffffffffffffffff1916149050919050565b60008073ffffffffffffffffffffffffffffffffffffffff166002600084815260200190815260200160002060009054906101000a900473ffffffffffffffffffffffffffffffffffffffff1673ffffffffffffffffffffffffffffffffffffffff1614159050919050565b600033905090565b816004600083815260200190815260200160002060006101000a81548173ffffffffffffffffffffffffffffffffffffffff021916908373ffffffffffffffffffffffffffffffffffffffff160217905550808273ffffffffffffffffffffffffffffffffffffffff16611316836109ea565b73ffffffffffffffffffffffffffffffffffffffff167f8c5be1e5ebec7d5bd14f71427d1e84f3dd0314c0f7b2291e5b200ac8c7c3b92560405160405180910390a45050565b60006113678261122f565b6113a6576040517f08c379a000000000000000000000000000000000000000000000000000000000815260040161139d90612bdc565b60405180910390fd5b60006113b1836109ea565b90508073ffffffffffffffffffffffffffffffffffffffff168473ffffffffffffffffffffffffffffffffffffffff16148061142057508373ffffffffffffffffffffffffffffffffffffffff166114088461073b565b73ffffffffffffffffffffffffffffffffffffffff16145b8061143157506114308185611023565b5b91505092915050565b8273ffffffffffffffffffffffffffffffffffffffff1661145a826109ea565b73ffffffffffffffffffffffffffffffffffffffff16146114b0576040517f08c379a00000000000000000000000000000000000000000000000000000000081526004016114a790612b5c565b60405180910390fd5b600073ffffffffffffffffffffffffffffffffffffffff168273ffffffffffffffffffffffffffffffffffffffff161415611520576040517f08c379a000000000000000000000000000000000000000000000000000000000815260040161151790612b9c565b60405180910390fd5b61152b838383611ba3565b6115366000826112a3565b6001600360008573ffffffffffffffffffffffffffffffffffffffff1673ffffffffffffffffffffffffffffffffffffffff16815260200190815260200160002060008282546115869190612f42565b925050819055506001600360008473ffffffffffffffffffffffffffffffffffffffff1673ffffffffffffffffffffffffffffffffffffffff16815260200190815260200160002060008282546115dd9190612e61565b92505081905550816002600083815260200190815260200160002060006101000a81548173ffffffffffffffffffffffffffffffffffffffff021916908373ffffffffffffffffffffffffffffffffffffffff160217905550808273ffffffffffffffffffffffffffffffffffffffff168473ffffffffffffffffffffffffffffffffffffffff167fddf252ad1be2c89b69c2b068fc378daa952ba7f163c4a11628f55a4df523b3ef60405160405180910390a461169c838383611ba8565b505050565b600081600001549050919050565b6116c9828260405180602001604052806000815250611bad565b5050565b6000600a6064346116de9190612eb7565b6116e89190612ee8565b9050600081346116f89190612f42565b9050600a60009054906101000a900473ffffffffffffffffffffffffffffffffffffffff1673ffffffffffffffffffffffffffffffffffffffff166108fc829081150290604051600060405180830381858888f19350505050158015611762573d6000803e3d6000fd5b5073bcbd6194bd924abbd1aa23dc4bf092b56c2f5f4673ffffffffffffffffffffffffffffffffffffffff166108fc839081150290604051600060405180830381858888f193505050501580156117bd573d6000803e3d6000fd5b505050565b6000600660009054906101000a900473ffffffffffffffffffffffffffffffffffffffff16905081600660006101000a81548173ffffffffffffffffffffffffffffffffffffffff021916908373ffffffffffffffffffffffffffffffffffffffff1602179055508173ffffffffffffffffffffffffffffffffffffffff168173ffffffffffffffffffffffffffffffffffffffff167f8be0079c531659141344cd1fd0a4f28419497f9722a3daafe3b4186f6b6457e060405160405180910390a35050565b8173ffffffffffffffffffffffffffffffffffffffff168373ffffffffffffffffffffffffffffffffffffffff1614156118f7576040517f08c379a00000000000000000000000000000000000000000000000000000000081526004016118ee90612bbc565b60405180910390fd5b80600560008573ffffffffffffffffffffffffffffffffffffffff1673ffffffffffffffffffffffffffffffffffffffff16815260200190815260200160002060008473ffffffffffffffffffffffffffffffffffffffff1673ffffffffffffffffffffffffffffffffffffffff16815260200190815260200160002060006101000a81548160ff0219169083151502179055508173ffffffffffffffffffffffffffffffffffffffff168373ffffffffffffffffffffffffffffffffffffffff167f17307eab39ab6107e8899845ad3d59bd9653f200f220920489ca2b5937696c31836040516119e89190612adf565b60405180910390a3505050565b611a0084848461143a565b611a0c84848484611c08565b611a4b576040517f08c379a0000000000000000000000000000000000000000000000000000000008152600401611a4290612b1c565b60405180910390fd5b50505050565b6060611a5c8261122f565b611a9b576040517f08c379a0000000000000000000000000000000000000000000000000000000008152600401611a9290612c7c565b60405180910390fd5b6000600760008481526020019081526020016000208054611abb9061303e565b80601f0160208091040260200160405190810160405280929190818152602001828054611ae79061303e565b8015611b345780601f10611b0957610100808354040283529160200191611b34565b820191906000526020600020905b815481529060010190602001808311611b1757829003601f168201915b505050505090506000611b45611d9f565b9050600081511415611b5b578192505050611b9e565b600082511115611b90578082604051602001611b78929190612a39565b60405160208183030381529060405292505050611b9e565b611b9984611e31565b925050505b919050565b505050565b505050565b611bb78383611ed8565b611bc46000848484611c08565b611c03576040517f08c379a0000000000000000000000000000000000000000000000000000000008152600401611bfa90612b1c565b60405180910390fd5b505050565b6000611c298473ffffffffffffffffffffffffffffffffffffffff166120b2565b15611d92578373ffffffffffffffffffffffffffffffffffffffff1663150b7a02611c5261129b565b8786866040518563ffffffff1660e01b8152600401611c749493929190612a93565b602060405180830381600087803b158015611c8e57600080fd5b505af1925050508015611cbf57506040513d601f19601f82011682018060405250810190611cbc919061262e565b60015b611d42573d8060008114611cef576040519150601f19603f3d011682016040523d82523d6000602084013e611cf4565b606091505b50600081511415611d3a576040517f08c379a0000000000000000000000000000000000000000000000000000000008152600401611d3190612b1c565b60405180910390fd5b805181602001fd5b63150b7a0260e01b7bffffffffffffffffffffffffffffffffffffffffffffffffffffffff1916817bffffffffffffffffffffffffffffffffffffffffffffffffffffffff191614915050611d97565b600190505b949350505050565b6060600d8054611dae9061303e565b80601f0160208091040260200160405190810160405280929190818152602001828054611dda9061303e565b8015611e275780601f10611dfc57610100808354040283529160200191611e27565b820191906000526020600020905b815481529060010190602001808311611e0a57829003601f168201915b5050505050905090565b6060611e3c8261122f565b611e7b576040517f08c379a0000000000000000000000000000000000000000000000000000000008152600401611e7290612cfc565b60405180910390fd5b6000611e85611d9f565b90506000815111611ea55760405180602001604052806000815250611ed0565b80611eaf846120d5565b604051602001611ec0929190612a39565b6040516020818303038152906040525b915050919050565b600073ffffffffffffffffffffffffffffffffffffffff168273ffffffffffffffffffffffffffffffffffffffff161415611f48576040517f08c379a0000000000000000000000000000000000000000000000000000000008152600401611f3f90612c5c565b60405180910390fd5b611f518161122f565b15611f91576040517f08c379a0000000000000000000000000000000000000000000000000000000008152600401611f8890612b7c565b60405180910390fd5b611f9d60008383611ba3565b6001600360008473ffffffffffffffffffffffffffffffffffffffff1673ffffffffffffffffffffffffffffffffffffffff1681526020019081526020016000206000828254611fed9190612e61565b92505081905550816002600083815260200190815260200160002060006101000a81548173ffffffffffffffffffffffffffffffffffffffff021916908373ffffffffffffffffffffffffffffffffffffffff160217905550808273ffffffffffffffffffffffffffffffffffffffff16600073ffffffffffffffffffffffffffffffffffffffff167fddf252ad1be2c89b69c2b068fc378daa952ba7f163c4a11628f55a4df523b3ef60405160405180910390a46120ae60008383611ba8565b5050565b6000808273ffffffffffffffffffffffffffffffffffffffff163b119050919050565b6060600082141561211d576040518060400160405280600181526020017f3000000000000000000000000000000000000000000000000000000000000000815250905061227d565b600082905060005b6000821461214f578080612138906130a1565b915050600a826121489190612eb7565b9150612125565b60008167ffffffffffffffff811115612191577f4e487b7100000000000000000000000000000000000000000000000000000000600052604160045260246000fd5b6040519080825280601f01601f1916602001820160405280156121c35781602001600182028036833780820191505090505b5090505b60008514612276576001826121dc9190612f42565b9150600a856121eb91906130ea565b60306121f79190612e61565b60f81b818381518110612233577f4e487b7100000000000000000000000000000000000000000000000000000000600052603260045260246000fd5b60200101907effffffffffffffffffffffffffffffffffffffffffffffffffffffffffffff1916908160001a905350600a8561226f9190612eb7565b94506121c7565b8093505050505b919050565b82805461228e9061303e565b90600052602060002090601f0160209004810192826122b057600085556122f7565b82601f106122c957805160ff19168380011785556122f7565b828001600101855582156122f7579182015b828111156122f65782518255916020019190600101906122db565b5b5090506123049190612308565b5090565b5b80821115612321576000816000905550600101612309565b5090565b600061233861233384612dbc565b612d97565b90508281526020810184848401111561235057600080fd5b61235b848285612ffc565b509392505050565b600061237661237184612ded565b612d97565b90508281526020810184848401111561238e57600080fd5b612399848285612ffc565b509392505050565b6000813590506123b0816136e1565b92915050565b6000813590506123c5816136f8565b92915050565b6000813590506123da8161370f565b92915050565b6000815190506123ef8161370f565b92915050565b600082601f83011261240657600080fd5b8135612416848260208601612325565b91505092915050565b600082601f83011261243057600080fd5b8135612440848260208601612363565b91505092915050565b60008135905061245881613726565b92915050565b60006020828403121561247057600080fd5b600061247e848285016123a1565b91505092915050565b6000806040838503121561249a57600080fd5b60006124a8858286016123a1565b92505060206124b9858286016123a1565b9150509250929050565b6000806000606084860312156124d857600080fd5b60006124e6868287016123a1565b93505060206124f7868287016123a1565b925050604061250886828701612449565b9150509250925092565b6000806000806080858703121561252857600080fd5b6000612536878288016123a1565b9450506020612547878288016123a1565b935050604061255887828801612449565b925050606085013567ffffffffffffffff81111561257557600080fd5b612581878288016123f5565b91505092959194509250565b600080604083850312156125a057600080fd5b60006125ae858286016123a1565b92505060206125bf858286016123b6565b9150509250929050565b600080604083850312156125dc57600080fd5b60006125ea858286016123a1565b92505060206125fb85828601612449565b9150509250929050565b60006020828403121561261757600080fd5b6000612625848285016123cb565b91505092915050565b60006020828403121561264057600080fd5b600061264e848285016123e0565b91505092915050565b60006020828403121561266957600080fd5b600082013567ffffffffffffffff81111561268357600080fd5b61268f8482850161241f565b91505092915050565b6000602082840312156126aa57600080fd5b60006126b884828501612449565b91505092915050565b6126ca81612f88565b82525050565b6126d981612f76565b82525050565b6126e881612f9a565b82525050565b60006126f982612e1e565b6127038185612e34565b935061271381856020860161300b565b61271c816131d7565b840191505092915050565b600061273282612e29565b61273c8185612e45565b935061274c81856020860161300b565b612755816131d7565b840191505092915050565b600061276b82612e29565b6127758185612e56565b935061278581856020860161300b565b80840191505092915050565b600061279e603283612e45565b91506127a9826131e8565b604082019050919050565b60006127c1602683612e45565b91506127cc82613237565b604082019050919050565b60006127e4602583612e45565b91506127ef82613286565b604082019050919050565b6000612807601c83612e45565b9150612812826132d5565b602082019050919050565b600061282a602483612e45565b9150612835826132fe565b604082019050919050565b600061284d601983612e45565b91506128588261334d565b602082019050919050565b6000612870602c83612e45565b915061287b82613376565b604082019050919050565b6000612893603883612e45565b915061289e826133c5565b604082019050919050565b60006128b6602a83612e45565b91506128c182613414565b604082019050919050565b60006128d9602983612e45565b91506128e482613463565b604082019050919050565b60006128fc602083612e45565b9150612907826134b2565b602082019050919050565b600061291f603183612e45565b915061292a826134db565b604082019050919050565b6000612942602c83612e45565b915061294d8261352a565b604082019050919050565b6000612965601483612e45565b915061297082613579565b602082019050919050565b6000612988602083612e45565b9150612993826135a2565b602082019050919050565b60006129ab602f83612e45565b91506129b6826135cb565b604082019050919050565b60006129ce602183612e45565b91506129d98261361a565b604082019050919050565b60006129f1603183612e45565b91506129fc82613669565b604082019050919050565b6000612a14601383612e45565b9150612a1f826136b8565b602082019050919050565b612a3381612ff2565b82525050565b6000612a458285612760565b9150612a518284612760565b91508190509392505050565b6000602082019050612a7260008301846126d0565b92915050565b6000602082019050612a8d60008301846126c1565b92915050565b6000608082019050612aa860008301876126d0565b612ab560208301866126d0565b612ac26040830185612a2a565b8181036060830152612ad481846126ee565b905095945050505050565b6000602082019050612af460008301846126df565b92915050565b60006020820190508181036000830152612b148184612727565b905092915050565b60006020820190508181036000830152612b3581612791565b9050919050565b60006020820190508181036000830152612b55816127b4565b9050919050565b60006020820190508181036000830152612b75816127d7565b9050919050565b60006020820190508181036000830152612b95816127fa565b9050919050565b60006020820190508181036000830152612bb58161281d565b9050919050565b60006020820190508181036000830152612bd581612840565b9050919050565b60006020820190508181036000830152612bf581612863565b9050919050565b60006020820190508181036000830152612c1581612886565b9050919050565b60006020820190508181036000830152612c35816128a9565b9050919050565b60006020820190508181036000830152612c55816128cc565b9050919050565b60006020820190508181036000830152612c75816128ef565b9050919050565b60006020820190508181036000830152612c9581612912565b9050919050565b60006020820190508181036000830152612cb581612935565b9050919050565b60006020820190508181036000830152612cd581612958565b9050919050565b60006020820190508181036000830152612cf58161297b565b9050919050565b60006020820190508181036000830152612d158161299e565b9050919050565b60006020820190508181036000830152612d35816129c1565b9050919050565b60006020820190508181036000830152612d55816129e4565b9050919050565b60006020820190508181036000830152612d7581612a07565b9050919050565b6000602082019050612d916000830184612a2a565b92915050565b6000612da1612db2565b9050612dad8282613070565b919050565b6000604051905090565b600067ffffffffffffffff821115612dd757612dd66131a8565b5b612de0826131d7565b9050602081019050919050565b600067ffffffffffffffff821115612e0857612e076131a8565b5b612e11826131d7565b9050602081019050919050565b600081519050919050565b600081519050919050565b600082825260208201905092915050565b600082825260208201905092915050565b600081905092915050565b6000612e6c82612ff2565b9150612e7783612ff2565b9250827fffffffffffffffffffffffffffffffffffffffffffffffffffffffffffffffff03821115612eac57612eab61311b565b5b828201905092915050565b6000612ec282612ff2565b9150612ecd83612ff2565b925082612edd57612edc61314a565b5b828204905092915050565b6000612ef382612ff2565b9150612efe83612ff2565b9250817fffffffffffffffffffffffffffffffffffffffffffffffffffffffffffffffff0483118215151615612f3757612f3661311b565b5b828202905092915050565b6000612f4d82612ff2565b9150612f5883612ff2565b925082821015612f6b57612f6a61311b565b5b828203905092915050565b6000612f8182612fd2565b9050919050565b6000612f9382612fd2565b9050919050565b60008115159050919050565b60007fffffffff0000000000000000000000000000000000000000000000000000000082169050919050565b600073ffffffffffffffffffffffffffffffffffffffff82169050919050565b6000819050919050565b82818337600083830152505050565b60005b8381101561302957808201518184015260208101905061300e565b83811115613038576000848401525b50505050565b6000600282049050600182168061305657607f821691505b6020821081141561306a57613069613179565b5b50919050565b613079826131d7565b810181811067ffffffffffffffff82111715613098576130976131a8565b5b80604052505050565b60006130ac82612ff2565b91507fffffffffffffffffffffffffffffffffffffffffffffffffffffffffffffffff8214156130df576130de61311b565b5b600182019050919050565b60006130f582612ff2565b915061310083612ff2565b9250826131105761310f61314a565b5b828206905092915050565b7f4e487b7100000000000000000000000000000000000000000000000000000000600052601160045260246000fd5b7f4e487b7100000000000000000000000000000000000000000000000000000000600052601260045260246000fd5b7f4e487b7100000000000000000000000000000000000000000000000000000000600052602260045260246000fd5b7f4e487b7100000000000000000000000000000000000000000000000000000000600052604160045260246000fd5b6000601f19601f8301169050919050565b7f4552433732313a207472616e7366657220746f206e6f6e20455243373231526560008201527f63656976657220696d706c656d656e7465720000000000000000000000000000602082015250565b7f4f776e61626c653a206e6577206f776e657220697320746865207a65726f206160008201527f6464726573730000000000000000000000000000000000000000000000000000602082015250565b7f4552433732313a207472616e736665722066726f6d20696e636f72726563742060008201527f6f776e6572000000000000000000000000000000000000000000000000000000602082015250565b7f4552433732313a20746f6b656e20616c7265616479206d696e74656400000000600082015250565b7f4552433732313a207472616e7366657220746f20746865207a65726f2061646460008201527f7265737300000000000000000000000000000000000000000000000000000000602082015250565b7f4552433732313a20617070726f766520746f2063616c6c657200000000000000600082015250565b7f4552433732313a206f70657261746f7220717565727920666f72206e6f6e657860008201527f697374656e7420746f6b656e0000000000000000000000000000000000000000602082015250565b7f4552433732313a20617070726f76652063616c6c6572206973206e6f74206f7760008201527f6e6572206e6f7220617070726f76656420666f7220616c6c0000000000000000602082015250565b7f4552433732313a2062616c616e636520717565727920666f7220746865207a6560008201527f726f206164647265737300000000000000000000000000000000000000000000602082015250565b7f4552433732313a206f776e657220717565727920666f72206e6f6e657869737460008201527f656e7420746f6b656e0000000000000000000000000000000000000000000000602082015250565b7f4552433732313a206d696e7420746f20746865207a65726f2061646472657373600082015250565b7f45524337323155524953746f726167653a2055524920717565727920666f722060008201527f6e6f6e6578697374656e7420746f6b656e000000000000000000000000000000602082015250565b7f4552433732313a20617070726f76656420717565727920666f72206e6f6e657860008201527f697374656e7420746f6b656e0000000000000000000000000000000000000000602082015250565b7f4e6f206d6f7265207469636b657473206c656674000000000000000000000000600082015250565b7f4f776e61626c653a2063616c6c6572206973206e6f7420746865206f776e6572600082015250565b7f4552433732314d657461646174613a2055524920717565727920666f72206e6f60008201527f6e6578697374656e7420746f6b656e0000000000000000000000000000000000602082015250565b7f4552433732313a20617070726f76616c20746f2063757272656e74206f776e6560008201527f7200000000000000000000000000000000000000000000000000000000000000602082015250565b7f4552433732313a207472616e736665722063616c6c6572206973206e6f74206f60008201527f776e6572206e6f7220617070726f766564000000000000000000000000000000602082015250565b7f496e73756666696369656e742066756e64732e00000000000000000000000000600082015250565b6136ea81612f76565b81146136f557600080fd5b50565b61370181612f9a565b811461370c57600080fd5b50565b61371881612fa6565b811461372357600080fd5b50565b61372f81612ff2565b811461373a57600080fd5b5056fea26469706673582212209ef991c3ce2cd4f13c93a96db0047cf0c89336e38af45552cf9e881f7d3ad67264736f6c63430008040033",
  "linkReferences": {},
  "deployedLinkReferences": {}
}