{
  "_format": "hh-sol-artifact-1",
  "contractName": "Ticket",
  "sourceName": "contracts/Ticket.sol",
  "abi": [
    {
      "inputs": [
        {
          "internalType": "string",
          "name": "name",
          "type": "string"
        },
        {
          "internalType": "string",
          "name": "symb",
          "type": "string"
        },
        {
          "internalType": "string",
          "name": "_place",
          "type": "string"
        },
        {
          "internalType": "uint256",
          "name": "_price",
          "type": "uint256"
        },
        {
          "internalType": "uint256",
          "name": "tickets",
          "type": "uint256"
        },
        {
          "internalType": "string",
          "name": "_uri",
          "type": "string"
        }
      ],
      "stateMutability": "nonpayable",
      "type": "constructor"
    },
    {
      "anonymous": false,
      "inputs": [
        {
          "indexed": true,
          "internalType": "address",
          "name": "owner",
          "type": "address"
        },
        {
          "indexed": true,
          "internalType": "address",
          "name": "approved",
          "type": "address"
        },
        {
          "indexed": true,
          "internalType": "uint256",
          "name": "tokenId",
          "type": "uint256"
        }
      ],
      "name": "Approval",
      "type": "event"
    },
    {
      "anonymous": false,
      "inputs": [
        {
          "indexed": true,
          "internalType": "address",
          "name": "owner",
          "type": "address"
        },
        {
          "indexed": true,
          "internalType": "address",
          "name": "operator",
          "type": "address"
        },
        {
          "indexed": false,
          "internalType": "bool",
          "name": "approved",
          "type": "bool"
        }
      ],
      "name": "ApprovalForAll",
      "type": "event"
    },
    {
      "anonymous": false,
      "inputs": [
        {
          "indexed": true,
          "internalType": "address",
          "name": "previousOwner",
          "type": "address"
        },
        {
          "indexed": true,
          "internalType": "address",
          "name": "newOwner",
          "type": "address"
        }
      ],
      "name": "OwnershipTransferred",
      "type": "event"
    },
    {
      "anonymous": false,
      "inputs": [
        {
          "indexed": true,
          "internalType": "address",
          "name": "from",
          "type": "address"
        },
        {
          "indexed": true,
          "internalType": "address",
          "name": "to",
          "type": "address"
        },
        {
          "indexed": true,
          "internalType": "uint256",
          "name": "tokenId",
          "type": "uint256"
        }
      ],
      "name": "Transfer",
      "type": "event"
    },
    {
      "inputs": [],
      "name": "Owner",
      "outputs": [
        {
          "internalType": "address payable",
          "name": "",
          "type": "address"
        }
      ],
      "stateMutability": "view",
      "type": "function"
    },
    {
      "inputs": [
        {
          "internalType": "address",
          "name": "to",
          "type": "address"
        },
        {
          "internalType": "uint256",
          "name": "tokenId",
          "type": "uint256"
        }
      ],
      "name": "approve",
      "outputs": [],
      "stateMutability": "nonpayable",
      "type": "function"
    },
    {
      "inputs": [
        {
          "internalType": "address",
          "name": "owner",
          "type": "address"
        }
      ],
      "name": "balanceOf",
      "outputs": [
        {
          "internalType": "uint256",
          "name": "",
          "type": "uint256"
        }
      ],
      "stateMutability": "view",
      "type": "function"
    },
    {
      "inputs": [
        {
          "internalType": "string",
          "name": "newPlace",
          "type": "string"
        }
      ],
      "name": "changePlace",
      "outputs": [],
      "stateMutability": "nonpayable",
      "type": "function"
    },
    {
      "inputs": [
        {
          "internalType": "uint256",
          "name": "tokenId",
          "type": "uint256"
        }
      ],
      "name": "getApproved",
      "outputs": [
        {
          "internalType": "address",
          "name": "",
          "type": "address"
        }
      ],
      "stateMutability": "view",
      "type": "function"
    },
    {
      "inputs": [],
      "name": "getPlace",
      "outputs": [
        {
          "internalType": "string",
          "name": "",
          "type": "string"
        }
      ],
      "stateMutability": "view",
      "type": "function"
    },
    {
      "inputs": [],
      "name": "getPrice",
      "outputs": [
        {
          "internalType": "uint256",
          "name": "",
          "type": "uint256"
        }
      ],
      "stateMutability": "view",
      "type": "function"
    },
    {
      "inputs": [],
      "name": "getStock",
      "outputs": [
        {
          "internalType": "uint256",
          "name": "",
          "type": "uint256"
        }
      ],
      "stateMutability": "view",
      "type": "function"
    },
    {
      "inputs": [
        {
          "internalType": "address",
          "name": "owner",
          "type": "address"
        },
        {
          "internalType": "address",
          "name": "operator",
          "type": "address"
        }
      ],
      "name": "isApprovedForAll",
      "outputs": [
        {
          "internalType": "bool",
          "name": "",
          "type": "bool"
        }
      ],
      "stateMutability": "view",
      "type": "function"
    },
    {
      "inputs": [],
      "name": "name",
      "outputs": [
        {
          "internalType": "string",
          "name": "",
          "type": "string"
        }
      ],
      "stateMutability": "view",
      "type": "function"
    },
    {
      "inputs": [],
      "name": "owner",
      "outputs": [
        {
          "internalType": "address",
          "name": "",
          "type": "address"
        }
      ],
      "stateMutability": "view",
      "type": "function"
    },
    {
      "inputs": [
        {
          "internalType": "uint256",
          "name": "tokenId",
          "type": "uint256"
        }
      ],
      "name": "ownerOf",
      "outputs": [
        {
          "internalType": "address",
          "name": "",
          "type": "address"
        }
      ],
      "stateMutability": "view",
      "type": "function"
    },
    {
      "inputs": [],
      "name": "place",
      "outputs": [
        {
          "internalType": "string",
          "name": "",
          "type": "string"
        }
      ],
      "stateMutability": "view",
      "type": "function"
    },
    {
      "inputs": [],
      "name": "price",
      "outputs": [
        {
          "internalType": "uint256",
          "name": "",
          "type": "uint256"
        }
      ],
      "stateMutability": "view",
      "type": "function"
    },
    {
      "inputs": [],
      "name": "renounceOwnership",
      "outputs": [],
      "stateMutability": "nonpayable",
      "type": "function"
    },
    {
      "inputs": [],
      "name": "safeMint",
      "outputs": [],
      "stateMutability": "payable",
      "type": "function"
    },
    {
      "inputs": [
        {
          "internalType": "address",
          "name": "from",
          "type": "address"
        },
        {
          "internalType": "address",
          "name": "to",
          "type": "address"
        },
        {
          "internalType": "uint256",
          "name": "tokenId",
          "type": "uint256"
        }
      ],
      "name": "safeTransferFrom",
      "outputs": [],
      "stateMutability": "nonpayable",
      "type": "function"
    },
    {
      "inputs": [
        {
          "internalType": "address",
          "name": "from",
          "type": "address"
        },
        {
          "internalType": "address",
          "name": "to",
          "type": "address"
        },
        {
          "internalType": "uint256",
          "name": "tokenId",
          "type": "uint256"
        },
        {
          "internalType": "bytes",
          "name": "_data",
          "type": "bytes"
        }
      ],
      "name": "safeTransferFrom",
      "outputs": [],
      "stateMutability": "nonpayable",
      "type": "function"
    },
    {
      "inputs": [
        {
          "internalType": "address",
          "name": "operator",
          "type": "address"
        },
        {
          "internalType": "bool",
          "name": "approved",
          "type": "bool"
        }
      ],
      "name": "setApprovalForAll",
      "outputs": [],
      "stateMutability": "nonpayable",
      "type": "function"
    },
    {
      "inputs": [
        {
          "internalType": "bytes4",
          "name": "interfaceId",
          "type": "bytes4"
        }
      ],
      "name": "supportsInterface",
      "outputs": [
        {
          "internalType": "bool",
          "name": "",
          "type": "bool"
        }
      ],
      "stateMutability": "view",
      "type": "function"
    },
    {
      "inputs": [],
      "name": "symbol",
      "outputs": [
        {
          "internalType": "string",
          "name": "",
          "type": "string"
        }
      ],
      "stateMutability": "view",
      "type": "function"
    },
    {
      "inputs": [
        {
          "internalType": "uint256",
          "name": "tokenId",
          "type": "uint256"
        }
      ],
      "name": "tokenURI",
      "outputs": [
        {
          "internalType": "string",
          "name": "",
          "type": "string"
        }
      ],
      "stateMutability": "view",
      "type": "function"
    },
    {
      "inputs": [
        {
          "internalType": "address",
          "name": "from",
          "type": "address"
        },
        {
          "internalType": "address",
          "name": "to",
          "type": "address"
        },
        {
          "internalType": "uint256",
          "name": "tokenId",
          "type": "uint256"
        }
      ],
      "name": "transferFrom",
      "outputs": [],
      "stateMutability": "nonpayable",
      "type": "function"
    },
    {
      "inputs": [
        {
          "internalType": "address",
          "name": "newOwner",
          "type": "address"
        }
      ],
      "name": "transferOwnership",
      "outputs": [],
      "stateMutability": "nonpayable",
      "type": "function"
    }
  ],
  "bytecode": "0x60806040523480156200001157600080fd5b5060405162003c9638038062003c9683398181016040528101906200003791906200034e565b858581600090805190602001906200005192919062000215565b5080600190805190602001906200006a92919062000215565b5050506200008d620000816200013160201b60201c565b6200013960201b60201c565b8360099080519060200190620000a592919062000215565b5082600c8190555080600d9080519060200190620000c592919062000215565b5033600a60006101000a81548173ffffffffffffffffffffffffffffffffffffffff021916908373ffffffffffffffffffffffffffffffffffffffff16021790555081600b81905550620001256008620001ff60201b620010e61760201c565b505050505050620005dc565b600033905090565b6000600660009054906101000a900473ffffffffffffffffffffffffffffffffffffffff16905081600660006101000a81548173ffffffffffffffffffffffffffffffffffffffff021916908373ffffffffffffffffffffffffffffffffffffffff1602179055508173ffffffffffffffffffffffffffffffffffffffff168173ffffffffffffffffffffffffffffffffffffffff167f8be0079c531659141344cd1fd0a4f28419497f9722a3daafe3b4186f6b6457e060405160405180910390a35050565b6001816000016000828254019250508190555050565b8280546200022390620004e7565b90600052602060002090601f01602090048101928262000247576000855562000293565b82601f106200026257805160ff191683800117855562000293565b8280016001018555821562000293579182015b828111156200029257825182559160200191906001019062000275565b5b509050620002a29190620002a6565b5090565b5b80821115620002c1576000816000905550600101620002a7565b5090565b6000620002dc620002d68462000471565b62000448565b905082815260208101848484011115620002f557600080fd5b62000302848285620004b1565b509392505050565b600082601f8301126200031c57600080fd5b81516200032e848260208601620002c5565b91505092915050565b6000815190506200034881620005c2565b92915050565b60008060008060008060c087890312156200036857600080fd5b600087015167ffffffffffffffff8111156200038357600080fd5b6200039189828a016200030a565b965050602087015167ffffffffffffffff811115620003af57600080fd5b620003bd89828a016200030a565b955050604087015167ffffffffffffffff811115620003db57600080fd5b620003e989828a016200030a565b9450506060620003fc89828a0162000337565b93505060806200040f89828a0162000337565b92505060a087015167ffffffffffffffff8111156200042d57600080fd5b6200043b89828a016200030a565b9150509295509295509295565b60006200045462000467565b90506200046282826200051d565b919050565b6000604051905090565b600067ffffffffffffffff8211156200048f576200048e62000582565b5b6200049a82620005b1565b9050602081019050919050565b6000819050919050565b60005b83811015620004d1578082015181840152602081019050620004b4565b83811115620004e1576000848401525b50505050565b600060028204905060018216806200050057607f821691505b6020821081141562000517576200051662000553565b5b50919050565b6200052882620005b1565b810181811067ffffffffffffffff821117156200054a576200054962000582565b5b80604052505050565b7f4e487b7100000000000000000000000000000000000000000000000000000000600052602260045260246000fd5b7f4e487b7100000000000000000000000000000000000000000000000000000000600052604160045260246000fd5b6000601f19601f8301169050919050565b620005cd81620004a7565b8114620005d957600080fd5b50565b6136aa80620005ec6000396000f3fe60806040526004361061014b5760003560e01c806393cca918116100b6578063b88d4fde1161006f578063b88d4fde1461045f578063c87b56dd14610488578063cb85b02d146104c5578063e38ffcd8146104f0578063e985e9c51461051b578063f2fde38b146105585761014b565b806393cca9181461035f57806395d89b411461038a57806398d5fdca146103b5578063a035b1fe146103e0578063a22cb4651461040b578063b4a99a4e146104345761014b565b80636352211e116101085780636352211e146102705780636871ee40146102ad57806370a08231146102b7578063715018a6146102f45780637c12e93f1461030b5780638da5cb5b146103345761014b565b806301ffc9a71461015057806306fdde031461018d578063081812fc146101b8578063095ea7b3146101f557806323b872dd1461021e57806342842e0e14610247575b600080fd5b34801561015c57600080fd5b506101776004803603810190610172919061253c565b610581565b6040516101849190612a16565b60405180910390f35b34801561019957600080fd5b506101a2610663565b6040516101af9190612a31565b60405180910390f35b3480156101c457600080fd5b506101df60048036038101906101da91906125cf565b6106f5565b6040516101ec9190612994565b60405180910390f35b34801561020157600080fd5b5061021c60048036038101906102179190612500565b61077a565b005b34801561022a57600080fd5b50610245600480360381019061024091906123fa565b610892565b005b34801561025357600080fd5b5061026e600480360381019061026991906123fa565b6108f2565b005b34801561027c57600080fd5b50610297600480360381019061029291906125cf565b610912565b6040516102a49190612994565b60405180910390f35b6102b56109c4565b005b3480156102c357600080fd5b506102de60048036038101906102d99190612395565b610a98565b6040516102eb9190612cb3565b60405180910390f35b34801561030057600080fd5b50610309610b50565b005b34801561031757600080fd5b50610332600480360381019061032d919061258e565b610bd8565b005b34801561034057600080fd5b50610349610c6e565b6040516103569190612994565b60405180910390f35b34801561036b57600080fd5b50610374610c98565b6040516103819190612a31565b60405180910390f35b34801561039657600080fd5b5061039f610d26565b6040516103ac9190612a31565b60405180910390f35b3480156103c157600080fd5b506103ca610db8565b6040516103d79190612cb3565b60405180910390f35b3480156103ec57600080fd5b506103f5610dd1565b6040516104029190612cb3565b60405180910390f35b34801561041757600080fd5b50610432600480360381019061042d91906124c4565b610dd7565b005b34801561044057600080fd5b50610449610ded565b60405161045691906129af565b60405180910390f35b34801561046b57600080fd5b5061048660048036038101906104819190612449565b610e13565b005b34801561049457600080fd5b506104af60048036038101906104aa91906125cf565b610e75565b6040516104bc9190612a31565b60405180910390f35b3480156104d157600080fd5b506104da610e87565b6040516104e79190612a31565b60405180910390f35b3480156104fc57600080fd5b50610505610f19565b6040516105129190612cb3565b60405180910390f35b34801561052757600080fd5b50610542600480360381019061053d91906123be565b610f5a565b60405161054f9190612a16565b60405180910390f35b34801561056457600080fd5b5061057f600480360381019061057a9190612395565b610fee565b005b60007f80ac58cd000000000000000000000000000000000000000000000000000000007bffffffffffffffffffffffffffffffffffffffffffffffffffffffff1916827bffffffffffffffffffffffffffffffffffffffffffffffffffffffff1916148061064c57507f5b5e139f000000000000000000000000000000000000000000000000000000007bffffffffffffffffffffffffffffffffffffffffffffffffffffffff1916827bffffffffffffffffffffffffffffffffffffffffffffffffffffffff1916145b8061065c575061065b826110fc565b5b9050919050565b60606000805461067290612f75565b80601f016020809104026020016040519081016040528092919081815260200182805461069e90612f75565b80156106eb5780601f106106c0576101008083540402835291602001916106eb565b820191906000526020600020905b8154815290600101906020018083116106ce57829003601f168201915b5050505050905090565b600061070082611166565b61073f576040517f08c379a000000000000000000000000000000000000000000000000000000000815260040161073690612bd3565b60405180910390fd5b6004600083815260200190815260200160002060009054906101000a900473ffffffffffffffffffffffffffffffffffffffff169050919050565b600061078582610912565b90508073ffffffffffffffffffffffffffffffffffffffff168373ffffffffffffffffffffffffffffffffffffffff1614156107f6576040517f08c379a00000000000000000000000000000000000000000000000000000000081526004016107ed90612c53565b60405180910390fd5b8073ffffffffffffffffffffffffffffffffffffffff166108156111d2565b73ffffffffffffffffffffffffffffffffffffffff16148061084457506108438161083e6111d2565b610f5a565b5b610883576040517f08c379a000000000000000000000000000000000000000000000000000000000815260040161087a90612b33565b60405180910390fd5b61088d83836111da565b505050565b6108a361089d6111d2565b82611293565b6108e2576040517f08c379a00000000000000000000000000000000000000000000000000000000081526004016108d990612c73565b60405180910390fd5b6108ed838383611371565b505050565b61090d83838360405180602001604052806000815250610e13565b505050565b6000806002600084815260200190815260200160002060009054906101000a900473ffffffffffffffffffffffffffffffffffffffff169050600073ffffffffffffffffffffffffffffffffffffffff168173ffffffffffffffffffffffffffffffffffffffff1614156109bb576040517f08c379a00000000000000000000000000000000000000000000000000000000081526004016109b290612b73565b60405180910390fd5b80915050919050565b600c54633b9aca00346109d79190612dee565b14610a17576040517f08c379a0000000000000000000000000000000000000000000000000000000008152600401610a0e90612c93565b60405180910390fd5b6000610a2360086115d8565b905080600b541015610a6a576040517f08c379a0000000000000000000000000000000000000000000000000000000008152600401610a6190612bf3565b60405180910390fd5b6000610a7660086115d8565b9050610a8233826115e6565b610a8a611604565b610a9460086110e6565b5050565b60008073ffffffffffffffffffffffffffffffffffffffff168273ffffffffffffffffffffffffffffffffffffffff161415610b09576040517f08c379a0000000000000000000000000000000000000000000000000000000008152600401610b0090612b53565b60405180910390fd5b600360008373ffffffffffffffffffffffffffffffffffffffff1673ffffffffffffffffffffffffffffffffffffffff168152602001908152602001600020549050919050565b610b586111d2565b73ffffffffffffffffffffffffffffffffffffffff16610b76610c6e565b73ffffffffffffffffffffffffffffffffffffffff1614610bcc576040517f08c379a0000000000000000000000000000000000000000000000000000000008152600401610bc390612c13565b60405180910390fd5b610bd660006116f9565b565b610be06111d2565b73ffffffffffffffffffffffffffffffffffffffff16610bfe610c6e565b73ffffffffffffffffffffffffffffffffffffffff1614610c54576040517f08c379a0000000000000000000000000000000000000000000000000000000008152600401610c4b90612c13565b60405180910390fd5b8060099080519060200190610c6a9291906121b9565b5050565b6000600660009054906101000a900473ffffffffffffffffffffffffffffffffffffffff16905090565b60098054610ca590612f75565b80601f0160208091040260200160405190810160405280929190818152602001828054610cd190612f75565b8015610d1e5780601f10610cf357610100808354040283529160200191610d1e565b820191906000526020600020905b815481529060010190602001808311610d0157829003601f168201915b505050505081565b606060018054610d3590612f75565b80601f0160208091040260200160405190810160405280929190818152602001828054610d6190612f75565b8015610dae5780601f10610d8357610100808354040283529160200191610dae565b820191906000526020600020905b815481529060010190602001808311610d9157829003601f168201915b5050505050905090565b6000633b9aca00600c54610dcc9190612e1f565b905090565b600c5481565b610de9610de26111d2565b83836117bf565b5050565b600a60009054906101000a900473ffffffffffffffffffffffffffffffffffffffff1681565b610e24610e1e6111d2565b83611293565b610e63576040517f08c379a0000000000000000000000000000000000000000000000000000000008152600401610e5a90612c73565b60405180910390fd5b610e6f8484848461192c565b50505050565b6060610e8082611988565b9050919050565b606060098054610e9690612f75565b80601f0160208091040260200160405190810160405280929190818152602001828054610ec290612f75565b8015610f0f5780601f10610ee457610100808354040283529160200191610f0f565b820191906000526020600020905b815481529060010190602001808311610ef257829003601f168201915b5050505050905090565b600080610f2660086115d8565b905080600b541015610f39576000610f54565b600181600b54610f499190612e79565b610f539190612d98565b5b91505090565b6000600560008473ffffffffffffffffffffffffffffffffffffffff1673ffffffffffffffffffffffffffffffffffffffff16815260200190815260200160002060008373ffffffffffffffffffffffffffffffffffffffff1673ffffffffffffffffffffffffffffffffffffffff16815260200190815260200160002060009054906101000a900460ff16905092915050565b610ff66111d2565b73ffffffffffffffffffffffffffffffffffffffff16611014610c6e565b73ffffffffffffffffffffffffffffffffffffffff161461106a576040517f08c379a000000000000000000000000000000000000000000000000000000000815260040161106190612c13565b60405180910390fd5b600073ffffffffffffffffffffffffffffffffffffffff168173ffffffffffffffffffffffffffffffffffffffff1614156110da576040517f08c379a00000000000000000000000000000000000000000000000000000000081526004016110d190612a73565b60405180910390fd5b6110e3816116f9565b50565b6001816000016000828254019250508190555050565b60007f01ffc9a7000000000000000000000000000000000000000000000000000000007bffffffffffffffffffffffffffffffffffffffffffffffffffffffff1916827bffffffffffffffffffffffffffffffffffffffffffffffffffffffff1916149050919050565b60008073ffffffffffffffffffffffffffffffffffffffff166002600084815260200190815260200160002060009054906101000a900473ffffffffffffffffffffffffffffffffffffffff1673ffffffffffffffffffffffffffffffffffffffff1614159050919050565b600033905090565b816004600083815260200190815260200160002060006101000a81548173ffffffffffffffffffffffffffffffffffffffff021916908373ffffffffffffffffffffffffffffffffffffffff160217905550808273ffffffffffffffffffffffffffffffffffffffff1661124d83610912565b73ffffffffffffffffffffffffffffffffffffffff167f8c5be1e5ebec7d5bd14f71427d1e84f3dd0314c0f7b2291e5b200ac8c7c3b92560405160405180910390a45050565b600061129e82611166565b6112dd576040517f08c379a00000000000000000000000000000000000000000000000000000000081526004016112d490612b13565b60405180910390fd5b60006112e883610912565b90508073ffffffffffffffffffffffffffffffffffffffff168473ffffffffffffffffffffffffffffffffffffffff16148061135757508373ffffffffffffffffffffffffffffffffffffffff1661133f846106f5565b73ffffffffffffffffffffffffffffffffffffffff16145b8061136857506113678185610f5a565b5b91505092915050565b8273ffffffffffffffffffffffffffffffffffffffff1661139182610912565b73ffffffffffffffffffffffffffffffffffffffff16146113e7576040517f08c379a00000000000000000000000000000000000000000000000000000000081526004016113de90612a93565b60405180910390fd5b600073ffffffffffffffffffffffffffffffffffffffff168273ffffffffffffffffffffffffffffffffffffffff161415611457576040517f08c379a000000000000000000000000000000000000000000000000000000000815260040161144e90612ad3565b60405180910390fd5b611462838383611ada565b61146d6000826111da565b6001600360008573ffffffffffffffffffffffffffffffffffffffff1673ffffffffffffffffffffffffffffffffffffffff16815260200190815260200160002060008282546114bd9190612e79565b925050819055506001600360008473ffffffffffffffffffffffffffffffffffffffff1673ffffffffffffffffffffffffffffffffffffffff16815260200190815260200160002060008282546115149190612d98565b92505081905550816002600083815260200190815260200160002060006101000a81548173ffffffffffffffffffffffffffffffffffffffff021916908373ffffffffffffffffffffffffffffffffffffffff160217905550808273ffffffffffffffffffffffffffffffffffffffff168473ffffffffffffffffffffffffffffffffffffffff167fddf252ad1be2c89b69c2b068fc378daa952ba7f163c4a11628f55a4df523b3ef60405160405180910390a46115d3838383611adf565b505050565b600081600001549050919050565b611600828260405180602001604052806000815250611ae4565b5050565b6000600a6064346116159190612dee565b61161f9190612e1f565b90506000813461162f9190612e79565b9050600a60009054906101000a900473ffffffffffffffffffffffffffffffffffffffff1673ffffffffffffffffffffffffffffffffffffffff166108fc829081150290604051600060405180830381858888f19350505050158015611699573d6000803e3d6000fd5b5073bcbd6194bd924abbd1aa23dc4bf092b56c2f5f4673ffffffffffffffffffffffffffffffffffffffff166108fc839081150290604051600060405180830381858888f193505050501580156116f4573d6000803e3d6000fd5b505050565b6000600660009054906101000a900473ffffffffffffffffffffffffffffffffffffffff16905081600660006101000a81548173ffffffffffffffffffffffffffffffffffffffff021916908373ffffffffffffffffffffffffffffffffffffffff1602179055508173ffffffffffffffffffffffffffffffffffffffff168173ffffffffffffffffffffffffffffffffffffffff167f8be0079c531659141344cd1fd0a4f28419497f9722a3daafe3b4186f6b6457e060405160405180910390a35050565b8173ffffffffffffffffffffffffffffffffffffffff168373ffffffffffffffffffffffffffffffffffffffff16141561182e576040517f08c379a000000000000000000000000000000000000000000000000000000000815260040161182590612af3565b60405180910390fd5b80600560008573ffffffffffffffffffffffffffffffffffffffff1673ffffffffffffffffffffffffffffffffffffffff16815260200190815260200160002060008473ffffffffffffffffffffffffffffffffffffffff1673ffffffffffffffffffffffffffffffffffffffff16815260200190815260200160002060006101000a81548160ff0219169083151502179055508173ffffffffffffffffffffffffffffffffffffffff168373ffffffffffffffffffffffffffffffffffffffff167f17307eab39ab6107e8899845ad3d59bd9653f200f220920489ca2b5937696c318360405161191f9190612a16565b60405180910390a3505050565b611937848484611371565b61194384848484611b3f565b611982576040517f08c379a000000000000000000000000000000000000000000000000000000000815260040161197990612a53565b60405180910390fd5b50505050565b606061199382611166565b6119d2576040517f08c379a00000000000000000000000000000000000000000000000000000000081526004016119c990612bb3565b60405180910390fd5b60006007600084815260200190815260200160002080546119f290612f75565b80601f0160208091040260200160405190810160405280929190818152602001828054611a1e90612f75565b8015611a6b5780601f10611a4057610100808354040283529160200191611a6b565b820191906000526020600020905b815481529060010190602001808311611a4e57829003601f168201915b505050505090506000611a7c611cd6565b9050600081511415611a92578192505050611ad5565b600082511115611ac7578082604051602001611aaf929190612970565b60405160208183030381529060405292505050611ad5565b611ad084611d68565b925050505b919050565b505050565b505050565b611aee8383611e0f565b611afb6000848484611b3f565b611b3a576040517f08c379a0000000000000000000000000000000000000000000000000000000008152600401611b3190612a53565b60405180910390fd5b505050565b6000611b608473ffffffffffffffffffffffffffffffffffffffff16611fe9565b15611cc9578373ffffffffffffffffffffffffffffffffffffffff1663150b7a02611b896111d2565b8786866040518563ffffffff1660e01b8152600401611bab94939291906129ca565b602060405180830381600087803b158015611bc557600080fd5b505af1925050508015611bf657506040513d601f19601f82011682018060405250810190611bf39190612565565b60015b611c79573d8060008114611c26576040519150601f19603f3d011682016040523d82523d6000602084013e611c2b565b606091505b50600081511415611c71576040517f08c379a0000000000000000000000000000000000000000000000000000000008152600401611c6890612a53565b60405180910390fd5b805181602001fd5b63150b7a0260e01b7bffffffffffffffffffffffffffffffffffffffffffffffffffffffff1916817bffffffffffffffffffffffffffffffffffffffffffffffffffffffff191614915050611cce565b600190505b949350505050565b6060600d8054611ce590612f75565b80601f0160208091040260200160405190810160405280929190818152602001828054611d1190612f75565b8015611d5e5780601f10611d3357610100808354040283529160200191611d5e565b820191906000526020600020905b815481529060010190602001808311611d4157829003601f168201915b5050505050905090565b6060611d7382611166565b611db2576040517f08c379a0000000000000000000000000000000000000000000000000000000008152600401611da990612c33565b60405180910390fd5b6000611dbc611cd6565b90506000815111611ddc5760405180602001604052806000815250611e07565b80611de68461200c565b604051602001611df7929190612970565b6040516020818303038152906040525b915050919050565b600073ffffffffffffffffffffffffffffffffffffffff168273ffffffffffffffffffffffffffffffffffffffff161415611e7f576040517f08c379a0000000000000000000000000000000000000000000000000000000008152600401611e7690612b93565b60405180910390fd5b611e8881611166565b15611ec8576040517f08c379a0000000000000000000000000000000000000000000000000000000008152600401611ebf90612ab3565b60405180910390fd5b611ed460008383611ada565b6001600360008473ffffffffffffffffffffffffffffffffffffffff1673ffffffffffffffffffffffffffffffffffffffff1681526020019081526020016000206000828254611f249190612d98565b92505081905550816002600083815260200190815260200160002060006101000a81548173ffffffffffffffffffffffffffffffffffffffff021916908373ffffffffffffffffffffffffffffffffffffffff160217905550808273ffffffffffffffffffffffffffffffffffffffff16600073ffffffffffffffffffffffffffffffffffffffff167fddf252ad1be2c89b69c2b068fc378daa952ba7f163c4a11628f55a4df523b3ef60405160405180910390a4611fe560008383611adf565b5050565b6000808273ffffffffffffffffffffffffffffffffffffffff163b119050919050565b60606000821415612054576040518060400160405280600181526020017f300000000000000000000000000000000000000000000000000000000000000081525090506121b4565b600082905060005b6000821461208657808061206f90612fd8565b915050600a8261207f9190612dee565b915061205c565b60008167ffffffffffffffff8111156120c8577f4e487b7100000000000000000000000000000000000000000000000000000000600052604160045260246000fd5b6040519080825280601f01601f1916602001820160405280156120fa5781602001600182028036833780820191505090505b5090505b600085146121ad576001826121139190612e79565b9150600a856121229190613021565b603061212e9190612d98565b60f81b81838151811061216a577f4e487b7100000000000000000000000000000000000000000000000000000000600052603260045260246000fd5b60200101907effffffffffffffffffffffffffffffffffffffffffffffffffffffffffffff1916908160001a905350600a856121a69190612dee565b94506120fe565b8093505050505b919050565b8280546121c590612f75565b90600052602060002090601f0160209004810192826121e7576000855561222e565b82601f1061220057805160ff191683800117855561222e565b8280016001018555821561222e579182015b8281111561222d578251825591602001919060010190612212565b5b50905061223b919061223f565b5090565b5b80821115612258576000816000905550600101612240565b5090565b600061226f61226a84612cf3565b612cce565b90508281526020810184848401111561228757600080fd5b612292848285612f33565b509392505050565b60006122ad6122a884612d24565b612cce565b9050828152602081018484840111156122c557600080fd5b6122d0848285612f33565b509392505050565b6000813590506122e781613618565b92915050565b6000813590506122fc8161362f565b92915050565b60008135905061231181613646565b92915050565b60008151905061232681613646565b92915050565b600082601f83011261233d57600080fd5b813561234d84826020860161225c565b91505092915050565b600082601f83011261236757600080fd5b813561237784826020860161229a565b91505092915050565b60008135905061238f8161365d565b92915050565b6000602082840312156123a757600080fd5b60006123b5848285016122d8565b91505092915050565b600080604083850312156123d157600080fd5b60006123df858286016122d8565b92505060206123f0858286016122d8565b9150509250929050565b60008060006060848603121561240f57600080fd5b600061241d868287016122d8565b935050602061242e868287016122d8565b925050604061243f86828701612380565b9150509250925092565b6000806000806080858703121561245f57600080fd5b600061246d878288016122d8565b945050602061247e878288016122d8565b935050604061248f87828801612380565b925050606085013567ffffffffffffffff8111156124ac57600080fd5b6124b88782880161232c565b91505092959194509250565b600080604083850312156124d757600080fd5b60006124e5858286016122d8565b92505060206124f6858286016122ed565b9150509250929050565b6000806040838503121561251357600080fd5b6000612521858286016122d8565b925050602061253285828601612380565b9150509250929050565b60006020828403121561254e57600080fd5b600061255c84828501612302565b91505092915050565b60006020828403121561257757600080fd5b600061258584828501612317565b91505092915050565b6000602082840312156125a057600080fd5b600082013567ffffffffffffffff8111156125ba57600080fd5b6125c684828501612356565b91505092915050565b6000602082840312156125e157600080fd5b60006125ef84828501612380565b91505092915050565b61260181612ebf565b82525050565b61261081612ead565b82525050565b61261f81612ed1565b82525050565b600061263082612d55565b61263a8185612d6b565b935061264a818560208601612f42565b6126538161310e565b840191505092915050565b600061266982612d60565b6126738185612d7c565b9350612683818560208601612f42565b61268c8161310e565b840191505092915050565b60006126a282612d60565b6126ac8185612d8d565b93506126bc818560208601612f42565b80840191505092915050565b60006126d5603283612d7c565b91506126e08261311f565b604082019050919050565b60006126f8602683612d7c565b91506127038261316e565b604082019050919050565b600061271b602583612d7c565b9150612726826131bd565b604082019050919050565b600061273e601c83612d7c565b91506127498261320c565b602082019050919050565b6000612761602483612d7c565b915061276c82613235565b604082019050919050565b6000612784601983612d7c565b915061278f82613284565b602082019050919050565b60006127a7602c83612d7c565b91506127b2826132ad565b604082019050919050565b60006127ca603883612d7c565b91506127d5826132fc565b604082019050919050565b60006127ed602a83612d7c565b91506127f88261334b565b604082019050919050565b6000612810602983612d7c565b915061281b8261339a565b604082019050919050565b6000612833602083612d7c565b915061283e826133e9565b602082019050919050565b6000612856603183612d7c565b915061286182613412565b604082019050919050565b6000612879602c83612d7c565b915061288482613461565b604082019050919050565b600061289c601483612d7c565b91506128a7826134b0565b602082019050919050565b60006128bf602083612d7c565b91506128ca826134d9565b602082019050919050565b60006128e2602f83612d7c565b91506128ed82613502565b604082019050919050565b6000612905602183612d7c565b915061291082613551565b604082019050919050565b6000612928603183612d7c565b9150612933826135a0565b604082019050919050565b600061294b601383612d7c565b9150612956826135ef565b602082019050919050565b61296a81612f29565b82525050565b600061297c8285612697565b91506129888284612697565b91508190509392505050565b60006020820190506129a96000830184612607565b92915050565b60006020820190506129c460008301846125f8565b92915050565b60006080820190506129df6000830187612607565b6129ec6020830186612607565b6129f96040830185612961565b8181036060830152612a0b8184612625565b905095945050505050565b6000602082019050612a2b6000830184612616565b92915050565b60006020820190508181036000830152612a4b818461265e565b905092915050565b60006020820190508181036000830152612a6c816126c8565b9050919050565b60006020820190508181036000830152612a8c816126eb565b9050919050565b60006020820190508181036000830152612aac8161270e565b9050919050565b60006020820190508181036000830152612acc81612731565b9050919050565b60006020820190508181036000830152612aec81612754565b9050919050565b60006020820190508181036000830152612b0c81612777565b9050919050565b60006020820190508181036000830152612b2c8161279a565b9050919050565b60006020820190508181036000830152612b4c816127bd565b9050919050565b60006020820190508181036000830152612b6c816127e0565b9050919050565b60006020820190508181036000830152612b8c81612803565b9050919050565b60006020820190508181036000830152612bac81612826565b9050919050565b60006020820190508181036000830152612bcc81612849565b9050919050565b60006020820190508181036000830152612bec8161286c565b9050919050565b60006020820190508181036000830152612c0c8161288f565b9050919050565b60006020820190508181036000830152612c2c816128b2565b9050919050565b60006020820190508181036000830152612c4c816128d5565b9050919050565b60006020820190508181036000830152612c6c816128f8565b9050919050565b60006020820190508181036000830152612c8c8161291b565b9050919050565b60006020820190508181036000830152612cac8161293e565b9050919050565b6000602082019050612cc86000830184612961565b92915050565b6000612cd8612ce9565b9050612ce48282612fa7565b919050565b6000604051905090565b600067ffffffffffffffff821115612d0e57612d0d6130df565b5b612d178261310e565b9050602081019050919050565b600067ffffffffffffffff821115612d3f57612d3e6130df565b5b612d488261310e565b9050602081019050919050565b600081519050919050565b600081519050919050565b600082825260208201905092915050565b600082825260208201905092915050565b600081905092915050565b6000612da382612f29565b9150612dae83612f29565b9250827fffffffffffffffffffffffffffffffffffffffffffffffffffffffffffffffff03821115612de357612de2613052565b5b828201905092915050565b6000612df982612f29565b9150612e0483612f29565b925082612e1457612e13613081565b5b828204905092915050565b6000612e2a82612f29565b9150612e3583612f29565b9250817fffffffffffffffffffffffffffffffffffffffffffffffffffffffffffffffff0483118215151615612e6e57612e6d613052565b5b828202905092915050565b6000612e8482612f29565b9150612e8f83612f29565b925082821015612ea257612ea1613052565b5b828203905092915050565b6000612eb882612f09565b9050919050565b6000612eca82612f09565b9050919050565b60008115159050919050565b60007fffffffff0000000000000000000000000000000000000000000000000000000082169050919050565b600073ffffffffffffffffffffffffffffffffffffffff82169050919050565b6000819050919050565b82818337600083830152505050565b60005b83811015612f60578082015181840152602081019050612f45565b83811115612f6f576000848401525b50505050565b60006002820490506001821680612f8d57607f821691505b60208210811415612fa157612fa06130b0565b5b50919050565b612fb08261310e565b810181811067ffffffffffffffff82111715612fcf57612fce6130df565b5b80604052505050565b6000612fe382612f29565b91507fffffffffffffffffffffffffffffffffffffffffffffffffffffffffffffffff82141561301657613015613052565b5b600182019050919050565b600061302c82612f29565b915061303783612f29565b92508261304757613046613081565b5b828206905092915050565b7f4e487b7100000000000000000000000000000000000000000000000000000000600052601160045260246000fd5b7f4e487b7100000000000000000000000000000000000000000000000000000000600052601260045260246000fd5b7f4e487b7100000000000000000000000000000000000000000000000000000000600052602260045260246000fd5b7f4e487b7100000000000000000000000000000000000000000000000000000000600052604160045260246000fd5b6000601f19601f8301169050919050565b7f4552433732313a207472616e7366657220746f206e6f6e20455243373231526560008201527f63656976657220696d706c656d656e7465720000000000000000000000000000602082015250565b7f4f776e61626c653a206e6577206f776e657220697320746865207a65726f206160008201527f6464726573730000000000000000000000000000000000000000000000000000602082015250565b7f4552433732313a207472616e736665722066726f6d20696e636f72726563742060008201527f6f776e6572000000000000000000000000000000000000000000000000000000602082015250565b7f4552433732313a20746f6b656e20616c7265616479206d696e74656400000000600082015250565b7f4552433732313a207472616e7366657220746f20746865207a65726f2061646460008201527f7265737300000000000000000000000000000000000000000000000000000000602082015250565b7f4552433732313a20617070726f766520746f2063616c6c657200000000000000600082015250565b7f4552433732313a206f70657261746f7220717565727920666f72206e6f6e657860008201527f697374656e7420746f6b656e0000000000000000000000000000000000000000602082015250565b7f4552433732313a20617070726f76652063616c6c6572206973206e6f74206f7760008201527f6e6572206e6f7220617070726f76656420666f7220616c6c0000000000000000602082015250565b7f4552433732313a2062616c616e636520717565727920666f7220746865207a6560008201527f726f206164647265737300000000000000000000000000000000000000000000602082015250565b7f4552433732313a206f776e657220717565727920666f72206e6f6e657869737460008201527f656e7420746f6b656e0000000000000000000000000000000000000000000000602082015250565b7f4552433732313a206d696e7420746f20746865207a65726f2061646472657373600082015250565b7f45524337323155524953746f726167653a2055524920717565727920666f722060008201527f6e6f6e6578697374656e7420746f6b656e000000000000000000000000000000602082015250565b7f4552433732313a20617070726f76656420717565727920666f72206e6f6e657860008201527f697374656e7420746f6b656e0000000000000000000000000000000000000000602082015250565b7f4e6f206d6f7265207469636b657473206c656674000000000000000000000000600082015250565b7f4f776e61626c653a2063616c6c6572206973206e6f7420746865206f776e6572600082015250565b7f4552433732314d657461646174613a2055524920717565727920666f72206e6f60008201527f6e6578697374656e7420746f6b656e0000000000000000000000000000000000602082015250565b7f4552433732313a20617070726f76616c20746f2063757272656e74206f776e6560008201527f7200000000000000000000000000000000000000000000000000000000000000602082015250565b7f4552433732313a207472616e736665722063616c6c6572206973206e6f74206f60008201527f776e6572206e6f7220617070726f766564000000000000000000000000000000602082015250565b7f496e73756666696369656e742066756e64732e00000000000000000000000000600082015250565b61362181612ead565b811461362c57600080fd5b50565b61363881612ed1565b811461364357600080fd5b50565b61364f81612edd565b811461365a57600080fd5b50565b61366681612f29565b811461367157600080fd5b5056fea26469706673582212207b7c062672e4bf0bfde6cc5851014aa058fb88fc708cc4e760a724ae7ca4697364736f6c63430008040033",
  "linkReferences": {},
  "deployedLinkReferences": {}
}