{
  "_format": "hh-sol-artifact-1",
  "contractName": "Ticket",
  "sourceName": "contracts/Ticket.sol",
  "abi": [
    {
      "inputs": [
        {
          "internalType": "string",
          "name": "name",
          "type": "string"
        },
        {
          "internalType": "string",
          "name": "symb",
          "type": "string"
        },
        {
          "internalType": "string",
          "name": "_place",
          "type": "string"
        },
        {
          "internalType": "uint256",
          "name": "_eventDate",
          "type": "uint256"
        }
      ],
      "stateMutability": "nonpayable",
      "type": "constructor"
    },
    {
      "anonymous": false,
      "inputs": [
        {
          "indexed": true,
          "internalType": "address",
          "name": "owner",
          "type": "address"
        },
        {
          "indexed": true,
          "internalType": "address",
          "name": "approved",
          "type": "address"
        },
        {
          "indexed": true,
          "internalType": "uint256",
          "name": "tokenId",
          "type": "uint256"
        }
      ],
      "name": "Approval",
      "type": "event"
    },
    {
      "anonymous": false,
      "inputs": [
        {
          "indexed": true,
          "internalType": "address",
          "name": "owner",
          "type": "address"
        },
        {
          "indexed": true,
          "internalType": "address",
          "name": "operator",
          "type": "address"
        },
        {
          "indexed": false,
          "internalType": "bool",
          "name": "approved",
          "type": "bool"
        }
      ],
      "name": "ApprovalForAll",
      "type": "event"
    },
    {
      "anonymous": false,
      "inputs": [
        {
          "indexed": true,
          "internalType": "address",
          "name": "previousOwner",
          "type": "address"
        },
        {
          "indexed": true,
          "internalType": "address",
          "name": "newOwner",
          "type": "address"
        }
      ],
      "name": "OwnershipTransferred",
      "type": "event"
    },
    {
      "anonymous": false,
      "inputs": [
        {
          "indexed": true,
          "internalType": "address",
          "name": "from",
          "type": "address"
        },
        {
          "indexed": true,
          "internalType": "address",
          "name": "to",
          "type": "address"
        },
        {
          "indexed": true,
          "internalType": "uint256",
          "name": "tokenId",
          "type": "uint256"
        }
      ],
      "name": "Transfer",
      "type": "event"
    },
    {
      "inputs": [
        {
          "internalType": "address",
          "name": "to",
          "type": "address"
        },
        {
          "internalType": "uint256",
          "name": "tokenId",
          "type": "uint256"
        }
      ],
      "name": "approve",
      "outputs": [],
      "stateMutability": "nonpayable",
      "type": "function"
    },
    {
      "inputs": [
        {
          "internalType": "address",
          "name": "owner",
          "type": "address"
        }
      ],
      "name": "balanceOf",
      "outputs": [
        {
          "internalType": "uint256",
          "name": "",
          "type": "uint256"
        }
      ],
      "stateMutability": "view",
      "type": "function"
    },
    {
      "inputs": [
        {
          "internalType": "uint256",
          "name": "newEventDate",
          "type": "uint256"
        }
      ],
      "name": "changeDate",
      "outputs": [],
      "stateMutability": "nonpayable",
      "type": "function"
    },
    {
      "inputs": [
        {
          "internalType": "string",
          "name": "newPlace",
          "type": "string"
        }
      ],
      "name": "changePlace",
      "outputs": [],
      "stateMutability": "nonpayable",
      "type": "function"
    },
    {
      "inputs": [],
      "name": "eventDate",
      "outputs": [
        {
          "internalType": "uint256",
          "name": "",
          "type": "uint256"
        }
      ],
      "stateMutability": "view",
      "type": "function"
    },
    {
      "inputs": [
        {
          "internalType": "uint256",
          "name": "tokenId",
          "type": "uint256"
        }
      ],
      "name": "getApproved",
      "outputs": [
        {
          "internalType": "address",
          "name": "",
          "type": "address"
        }
      ],
      "stateMutability": "view",
      "type": "function"
    },
    {
      "inputs": [],
      "name": "getDate",
      "outputs": [
        {
          "internalType": "uint256",
          "name": "",
          "type": "uint256"
        }
      ],
      "stateMutability": "view",
      "type": "function"
    },
    {
      "inputs": [],
      "name": "getPlace",
      "outputs": [
        {
          "internalType": "string",
          "name": "",
          "type": "string"
        }
      ],
      "stateMutability": "view",
      "type": "function"
    },
    {
      "inputs": [
        {
          "internalType": "address",
          "name": "owner",
          "type": "address"
        },
        {
          "internalType": "address",
          "name": "operator",
          "type": "address"
        }
      ],
      "name": "isApprovedForAll",
      "outputs": [
        {
          "internalType": "bool",
          "name": "",
          "type": "bool"
        }
      ],
      "stateMutability": "view",
      "type": "function"
    },
    {
      "inputs": [],
      "name": "name",
      "outputs": [
        {
          "internalType": "string",
          "name": "",
          "type": "string"
        }
      ],
      "stateMutability": "view",
      "type": "function"
    },
    {
      "inputs": [],
      "name": "owner",
      "outputs": [
        {
          "internalType": "address",
          "name": "",
          "type": "address"
        }
      ],
      "stateMutability": "view",
      "type": "function"
    },
    {
      "inputs": [
        {
          "internalType": "uint256",
          "name": "tokenId",
          "type": "uint256"
        }
      ],
      "name": "ownerOf",
      "outputs": [
        {
          "internalType": "address",
          "name": "",
          "type": "address"
        }
      ],
      "stateMutability": "view",
      "type": "function"
    },
    {
      "inputs": [],
      "name": "place",
      "outputs": [
        {
          "internalType": "string",
          "name": "",
          "type": "string"
        }
      ],
      "stateMutability": "view",
      "type": "function"
    },
    {
      "inputs": [],
      "name": "renounceOwnership",
      "outputs": [],
      "stateMutability": "nonpayable",
      "type": "function"
    },
    {
      "inputs": [],
      "name": "safeMint",
      "outputs": [],
      "stateMutability": "nonpayable",
      "type": "function"
    },
    {
      "inputs": [
        {
          "internalType": "address",
          "name": "from",
          "type": "address"
        },
        {
          "internalType": "address",
          "name": "to",
          "type": "address"
        },
        {
          "internalType": "uint256",
          "name": "tokenId",
          "type": "uint256"
        }
      ],
      "name": "safeTransferFrom",
      "outputs": [],
      "stateMutability": "nonpayable",
      "type": "function"
    },
    {
      "inputs": [
        {
          "internalType": "address",
          "name": "from",
          "type": "address"
        },
        {
          "internalType": "address",
          "name": "to",
          "type": "address"
        },
        {
          "internalType": "uint256",
          "name": "tokenId",
          "type": "uint256"
        },
        {
          "internalType": "bytes",
          "name": "_data",
          "type": "bytes"
        }
      ],
      "name": "safeTransferFrom",
      "outputs": [],
      "stateMutability": "nonpayable",
      "type": "function"
    },
    {
      "inputs": [
        {
          "internalType": "address",
          "name": "operator",
          "type": "address"
        },
        {
          "internalType": "bool",
          "name": "approved",
          "type": "bool"
        }
      ],
      "name": "setApprovalForAll",
      "outputs": [],
      "stateMutability": "nonpayable",
      "type": "function"
    },
    {
      "inputs": [
        {
          "internalType": "bytes4",
          "name": "interfaceId",
          "type": "bytes4"
        }
      ],
      "name": "supportsInterface",
      "outputs": [
        {
          "internalType": "bool",
          "name": "",
          "type": "bool"
        }
      ],
      "stateMutability": "view",
      "type": "function"
    },
    {
      "inputs": [],
      "name": "symbol",
      "outputs": [
        {
          "internalType": "string",
          "name": "",
          "type": "string"
        }
      ],
      "stateMutability": "view",
      "type": "function"
    },
    {
      "inputs": [
        {
          "internalType": "uint256",
          "name": "tokenId",
          "type": "uint256"
        }
      ],
      "name": "tokenURI",
      "outputs": [
        {
          "internalType": "string",
          "name": "",
          "type": "string"
        }
      ],
      "stateMutability": "view",
      "type": "function"
    },
    {
      "inputs": [
        {
          "internalType": "address",
          "name": "from",
          "type": "address"
        },
        {
          "internalType": "address",
          "name": "to",
          "type": "address"
        },
        {
          "internalType": "uint256",
          "name": "tokenId",
          "type": "uint256"
        }
      ],
      "name": "transferFrom",
      "outputs": [],
      "stateMutability": "nonpayable",
      "type": "function"
    },
    {
      "inputs": [
        {
          "internalType": "address",
          "name": "newOwner",
          "type": "address"
        }
      ],
      "name": "transferOwnership",
      "outputs": [],
      "stateMutability": "nonpayable",
      "type": "function"
    }
  ],
  "bytecode": "0x60806040523480156200001157600080fd5b5060405162003691380380620036918339818101604052810190620000379190620002be565b838381600090805190602001906200005192919062000185565b5080600190805190602001906200006a92919062000185565b5050506200008d62000081620000b760201b60201c565b620000bf60201b60201c565b806008819055508160099080519060200190620000ac92919062000185565b505050505062000509565b600033905090565b6000600660009054906101000a900473ffffffffffffffffffffffffffffffffffffffff16905081600660006101000a81548173ffffffffffffffffffffffffffffffffffffffff021916908373ffffffffffffffffffffffffffffffffffffffff1602179055508173ffffffffffffffffffffffffffffffffffffffff168173ffffffffffffffffffffffffffffffffffffffff167f8be0079c531659141344cd1fd0a4f28419497f9722a3daafe3b4186f6b6457e060405160405180910390a35050565b828054620001939062000414565b90600052602060002090601f016020900481019282620001b7576000855562000203565b82601f10620001d257805160ff191683800117855562000203565b8280016001018555821562000203579182015b8281111562000202578251825591602001919060010190620001e5565b5b50905062000212919062000216565b5090565b5b808211156200023157600081600090555060010162000217565b5090565b60006200024c62000246846200039e565b62000375565b9050828152602081018484840111156200026557600080fd5b62000272848285620003de565b509392505050565b600082601f8301126200028c57600080fd5b81516200029e84826020860162000235565b91505092915050565b600081519050620002b881620004ef565b92915050565b60008060008060808587031215620002d557600080fd5b600085015167ffffffffffffffff811115620002f057600080fd5b620002fe878288016200027a565b945050602085015167ffffffffffffffff8111156200031c57600080fd5b6200032a878288016200027a565b935050604085015167ffffffffffffffff8111156200034857600080fd5b62000356878288016200027a565b92505060606200036987828801620002a7565b91505092959194509250565b60006200038162000394565b90506200038f82826200044a565b919050565b6000604051905090565b600067ffffffffffffffff821115620003bc57620003bb620004af565b5b620003c782620004de565b9050602081019050919050565b6000819050919050565b60005b83811015620003fe578082015181840152602081019050620003e1565b838111156200040e576000848401525b50505050565b600060028204905060018216806200042d57607f821691505b6020821081141562000444576200044362000480565b5b50919050565b6200045582620004de565b810181811067ffffffffffffffff82111715620004775762000476620004af565b5b80604052505050565b7f4e487b7100000000000000000000000000000000000000000000000000000000600052602260045260246000fd5b7f4e487b7100000000000000000000000000000000000000000000000000000000600052604160045260246000fd5b6000601f19601f8301169050919050565b620004fa81620003d4565b81146200050657600080fd5b50565b61317880620005196000396000f3fe608060405234801561001057600080fd5b506004361061014d5760003560e01c8063715018a6116100c3578063b88d4fde1161007c578063b88d4fde14610366578063c87b56dd14610382578063cb85b02d146103b2578063df253078146103d0578063e985e9c5146103ec578063f2fde38b1461041c5761014d565b8063715018a6146102ca5780637c12e93f146102d45780638da5cb5b146102f057806393cca9181461030e57806395d89b411461032c578063a22cb4651461034a5761014d565b806342842e0e1161011557806342842e0e14610208578063430fe9c1146102245780634bfbe5df146102425780636352211e146102605780636871ee401461029057806370a082311461029a5761014d565b806301ffc9a71461015257806306fdde0314610182578063081812fc146101a0578063095ea7b3146101d057806323b872dd146101ec575b600080fd5b61016c6004803603810190610167919061219e565b610438565b6040516101799190612608565b60405180910390f35b61018a61051a565b6040516101979190612623565b60405180910390f35b6101ba60048036038101906101b59190612231565b6105ac565b6040516101c791906125a1565b60405180910390f35b6101ea60048036038101906101e59190612162565b610631565b005b6102066004803603810190610201919061205c565b610749565b005b610222600480360381019061021d919061205c565b6107a9565b005b61022c6107c9565b6040516102399190612865565b60405180910390f35b61024a6107d3565b6040516102579190612865565b60405180910390f35b61027a60048036038101906102759190612231565b6107d9565b60405161028791906125a1565b60405180910390f35b61029861088b565b005b6102b460048036038101906102af9190611ff7565b61090c565b6040516102c19190612865565b60405180910390f35b6102d26109c4565b005b6102ee60048036038101906102e991906121f0565b610a4c565b005b6102f8610ae2565b60405161030591906125a1565b60405180910390f35b610316610b0c565b6040516103239190612623565b60405180910390f35b610334610b9a565b6040516103419190612623565b60405180910390f35b610364600480360381019061035f9190612126565b610c2c565b005b610380600480360381019061037b91906120ab565b610c42565b005b61039c60048036038101906103979190612231565b610ca4565b6040516103a99190612623565b60405180910390f35b6103ba610d4b565b6040516103c79190612623565b60405180910390f35b6103ea60048036038101906103e59190612231565b610ddd565b005b61040660048036038101906104019190612020565b610e63565b6040516104139190612608565b60405180910390f35b61043660048036038101906104319190611ff7565b610ef7565b005b60007f80ac58cd000000000000000000000000000000000000000000000000000000007bffffffffffffffffffffffffffffffffffffffffffffffffffffffff1916827bffffffffffffffffffffffffffffffffffffffffffffffffffffffff1916148061050357507f5b5e139f000000000000000000000000000000000000000000000000000000007bffffffffffffffffffffffffffffffffffffffffffffffffffffffff1916827bffffffffffffffffffffffffffffffffffffffffffffffffffffffff1916145b80610513575061051282610fef565b5b9050919050565b60606000805461052990612abb565b80601f016020809104026020016040519081016040528092919081815260200182805461055590612abb565b80156105a25780601f10610577576101008083540402835291602001916105a2565b820191906000526020600020905b81548152906001019060200180831161058557829003601f168201915b5050505050905090565b60006105b782611059565b6105f6576040517f08c379a00000000000000000000000000000000000000000000000000000000081526004016105ed906127c5565b60405180910390fd5b6004600083815260200190815260200160002060009054906101000a900473ffffffffffffffffffffffffffffffffffffffff169050919050565b600061063c826107d9565b90508073ffffffffffffffffffffffffffffffffffffffff168373ffffffffffffffffffffffffffffffffffffffff1614156106ad576040517f08c379a00000000000000000000000000000000000000000000000000000000081526004016106a490612825565b60405180910390fd5b8073ffffffffffffffffffffffffffffffffffffffff166106cc6110c5565b73ffffffffffffffffffffffffffffffffffffffff1614806106fb57506106fa816106f56110c5565b610e63565b5b61073a576040517f08c379a000000000000000000000000000000000000000000000000000000000815260040161073190612725565b60405180910390fd5b61074483836110cd565b505050565b61075a6107546110c5565b82611186565b610799576040517f08c379a000000000000000000000000000000000000000000000000000000000815260040161079090612845565b60405180910390fd5b6107a4838383611264565b505050565b6107c483838360405180602001604052806000815250610c42565b505050565b6000600854905090565b60085481565b6000806002600084815260200190815260200160002060009054906101000a900473ffffffffffffffffffffffffffffffffffffffff169050600073ffffffffffffffffffffffffffffffffffffffff168173ffffffffffffffffffffffffffffffffffffffff161415610882576040517f08c379a000000000000000000000000000000000000000000000000000000000815260040161087990612765565b60405180910390fd5b80915050919050565b600061089760076114cb565b905060058111156108dd576040517f08c379a00000000000000000000000000000000000000000000000000000000081526004016108d490612785565b60405180910390fd5b6108e760076114d9565b60006108f360076114cb565b90506108fe816114ef565b6109083382611588565b5050565b60008073ffffffffffffffffffffffffffffffffffffffff168273ffffffffffffffffffffffffffffffffffffffff16141561097d576040517f08c379a000000000000000000000000000000000000000000000000000000000815260040161097490612745565b60405180910390fd5b600360008373ffffffffffffffffffffffffffffffffffffffff1673ffffffffffffffffffffffffffffffffffffffff168152602001908152602001600020549050919050565b6109cc6110c5565b73ffffffffffffffffffffffffffffffffffffffff166109ea610ae2565b73ffffffffffffffffffffffffffffffffffffffff1614610a40576040517f08c379a0000000000000000000000000000000000000000000000000000000008152600401610a37906127e5565b60405180910390fd5b610a4a60006115a6565b565b610a546110c5565b73ffffffffffffffffffffffffffffffffffffffff16610a72610ae2565b73ffffffffffffffffffffffffffffffffffffffff1614610ac8576040517f08c379a0000000000000000000000000000000000000000000000000000000008152600401610abf906127e5565b60405180910390fd5b8060099080519060200190610ade929190611e1b565b5050565b6000600660009054906101000a900473ffffffffffffffffffffffffffffffffffffffff16905090565b60098054610b1990612abb565b80601f0160208091040260200160405190810160405280929190818152602001828054610b4590612abb565b8015610b925780601f10610b6757610100808354040283529160200191610b92565b820191906000526020600020905b815481529060010190602001808311610b7557829003601f168201915b505050505081565b606060018054610ba990612abb565b80601f0160208091040260200160405190810160405280929190818152602001828054610bd590612abb565b8015610c225780601f10610bf757610100808354040283529160200191610c22565b820191906000526020600020905b815481529060010190602001808311610c0557829003601f168201915b5050505050905090565b610c3e610c376110c5565b838361166c565b5050565b610c53610c4d6110c5565b83611186565b610c92576040517f08c379a0000000000000000000000000000000000000000000000000000000008152600401610c8990612845565b60405180910390fd5b610c9e848484846117d9565b50505050565b6060610caf82611059565b610cee576040517f08c379a0000000000000000000000000000000000000000000000000000000008152600401610ce590612805565b60405180910390fd5b6000610cf8611835565b90506000815111610d185760405180602001604052806000815250610d43565b80610d228461184c565b604051602001610d3392919061257d565b6040516020818303038152906040525b915050919050565b606060098054610d5a90612abb565b80601f0160208091040260200160405190810160405280929190818152602001828054610d8690612abb565b8015610dd35780601f10610da857610100808354040283529160200191610dd3565b820191906000526020600020905b815481529060010190602001808311610db657829003601f168201915b5050505050905090565b610de56110c5565b73ffffffffffffffffffffffffffffffffffffffff16610e03610ae2565b73ffffffffffffffffffffffffffffffffffffffff1614610e59576040517f08c379a0000000000000000000000000000000000000000000000000000000008152600401610e50906127e5565b60405180910390fd5b8060088190555050565b6000600560008473ffffffffffffffffffffffffffffffffffffffff1673ffffffffffffffffffffffffffffffffffffffff16815260200190815260200160002060008373ffffffffffffffffffffffffffffffffffffffff1673ffffffffffffffffffffffffffffffffffffffff16815260200190815260200160002060009054906101000a900460ff16905092915050565b610eff6110c5565b73ffffffffffffffffffffffffffffffffffffffff16610f1d610ae2565b73ffffffffffffffffffffffffffffffffffffffff1614610f73576040517f08c379a0000000000000000000000000000000000000000000000000000000008152600401610f6a906127e5565b60405180910390fd5b600073ffffffffffffffffffffffffffffffffffffffff168173ffffffffffffffffffffffffffffffffffffffff161415610fe3576040517f08c379a0000000000000000000000000000000000000000000000000000000008152600401610fda90612665565b60405180910390fd5b610fec816115a6565b50565b60007f01ffc9a7000000000000000000000000000000000000000000000000000000007bffffffffffffffffffffffffffffffffffffffffffffffffffffffff1916827bffffffffffffffffffffffffffffffffffffffffffffffffffffffff1916149050919050565b60008073ffffffffffffffffffffffffffffffffffffffff166002600084815260200190815260200160002060009054906101000a900473ffffffffffffffffffffffffffffffffffffffff1673ffffffffffffffffffffffffffffffffffffffff1614159050919050565b600033905090565b816004600083815260200190815260200160002060006101000a81548173ffffffffffffffffffffffffffffffffffffffff021916908373ffffffffffffffffffffffffffffffffffffffff160217905550808273ffffffffffffffffffffffffffffffffffffffff16611140836107d9565b73ffffffffffffffffffffffffffffffffffffffff167f8c5be1e5ebec7d5bd14f71427d1e84f3dd0314c0f7b2291e5b200ac8c7c3b92560405160405180910390a45050565b600061119182611059565b6111d0576040517f08c379a00000000000000000000000000000000000000000000000000000000081526004016111c790612705565b60405180910390fd5b60006111db836107d9565b90508073ffffffffffffffffffffffffffffffffffffffff168473ffffffffffffffffffffffffffffffffffffffff16148061124a57508373ffffffffffffffffffffffffffffffffffffffff16611232846105ac565b73ffffffffffffffffffffffffffffffffffffffff16145b8061125b575061125a8185610e63565b5b91505092915050565b8273ffffffffffffffffffffffffffffffffffffffff16611284826107d9565b73ffffffffffffffffffffffffffffffffffffffff16146112da576040517f08c379a00000000000000000000000000000000000000000000000000000000081526004016112d190612685565b60405180910390fd5b600073ffffffffffffffffffffffffffffffffffffffff168273ffffffffffffffffffffffffffffffffffffffff16141561134a576040517f08c379a0000000000000000000000000000000000000000000000000000000008152600401611341906126c5565b60405180910390fd5b6113558383836119f9565b6113606000826110cd565b6001600360008573ffffffffffffffffffffffffffffffffffffffff1673ffffffffffffffffffffffffffffffffffffffff16815260200190815260200160002060008282546113b091906129d1565b925050819055506001600360008473ffffffffffffffffffffffffffffffffffffffff1673ffffffffffffffffffffffffffffffffffffffff1681526020019081526020016000206000828254611407919061294a565b92505081905550816002600083815260200190815260200160002060006101000a81548173ffffffffffffffffffffffffffffffffffffffff021916908373ffffffffffffffffffffffffffffffffffffffff160217905550808273ffffffffffffffffffffffffffffffffffffffff168473ffffffffffffffffffffffffffffffffffffffff167fddf252ad1be2c89b69c2b068fc378daa952ba7f163c4a11628f55a4df523b3ef60405160405180910390a46114c68383836119fe565b505050565b600081600001549050919050565b6001816000016000828254019250508190555050565b611585816040516024016115039190612865565b6040516020818303038152906040527ff5b1bba9000000000000000000000000000000000000000000000000000000007bffffffffffffffffffffffffffffffffffffffffffffffffffffffff19166020820180517bffffffffffffffffffffffffffffffffffffffffffffffffffffffff8381831617835250505050611a03565b50565b6115a2828260405180602001604052806000815250611a2c565b5050565b6000600660009054906101000a900473ffffffffffffffffffffffffffffffffffffffff16905081600660006101000a81548173ffffffffffffffffffffffffffffffffffffffff021916908373ffffffffffffffffffffffffffffffffffffffff1602179055508173ffffffffffffffffffffffffffffffffffffffff168173ffffffffffffffffffffffffffffffffffffffff167f8be0079c531659141344cd1fd0a4f28419497f9722a3daafe3b4186f6b6457e060405160405180910390a35050565b8173ffffffffffffffffffffffffffffffffffffffff168373ffffffffffffffffffffffffffffffffffffffff1614156116db576040517f08c379a00000000000000000000000000000000000000000000000000000000081526004016116d2906126e5565b60405180910390fd5b80600560008573ffffffffffffffffffffffffffffffffffffffff1673ffffffffffffffffffffffffffffffffffffffff16815260200190815260200160002060008473ffffffffffffffffffffffffffffffffffffffff1673ffffffffffffffffffffffffffffffffffffffff16815260200190815260200160002060006101000a81548160ff0219169083151502179055508173ffffffffffffffffffffffffffffffffffffffff168373ffffffffffffffffffffffffffffffffffffffff167f17307eab39ab6107e8899845ad3d59bd9653f200f220920489ca2b5937696c31836040516117cc9190612608565b60405180910390a3505050565b6117e4848484611264565b6117f084848484611a87565b61182f576040517f08c379a000000000000000000000000000000000000000000000000000000000815260040161182690612645565b60405180910390fd5b50505050565b606060405180602001604052806000815250905090565b60606000821415611894576040518060400160405280600181526020017f300000000000000000000000000000000000000000000000000000000000000081525090506119f4565b600082905060005b600082146118c65780806118af90612b1e565b915050600a826118bf91906129a0565b915061189c565b60008167ffffffffffffffff811115611908577f4e487b7100000000000000000000000000000000000000000000000000000000600052604160045260246000fd5b6040519080825280601f01601f19166020018201604052801561193a5781602001600182028036833780820191505090505b5090505b600085146119ed5760018261195391906129d1565b9150600a856119629190612b67565b603061196e919061294a565b60f81b8183815181106119aa577f4e487b7100000000000000000000000000000000000000000000000000000000600052603260045260246000fd5b60200101907effffffffffffffffffffffffffffffffffffffffffffffffffffffffffffff1916908160001a905350600a856119e691906129a0565b945061193e565b8093505050505b919050565b505050565b505050565b60008151905060006a636f6e736f6c652e6c6f679050602083016000808483855afa5050505050565b611a368383611c1e565b611a436000848484611a87565b611a82576040517f08c379a0000000000000000000000000000000000000000000000000000000008152600401611a7990612645565b60405180910390fd5b505050565b6000611aa88473ffffffffffffffffffffffffffffffffffffffff16611df8565b15611c11578373ffffffffffffffffffffffffffffffffffffffff1663150b7a02611ad16110c5565b8786866040518563ffffffff1660e01b8152600401611af394939291906125bc565b602060405180830381600087803b158015611b0d57600080fd5b505af1925050508015611b3e57506040513d601f19601f82011682018060405250810190611b3b91906121c7565b60015b611bc1573d8060008114611b6e576040519150601f19603f3d011682016040523d82523d6000602084013e611b73565b606091505b50600081511415611bb9576040517f08c379a0000000000000000000000000000000000000000000000000000000008152600401611bb090612645565b60405180910390fd5b805181602001fd5b63150b7a0260e01b7bffffffffffffffffffffffffffffffffffffffffffffffffffffffff1916817bffffffffffffffffffffffffffffffffffffffffffffffffffffffff191614915050611c16565b600190505b949350505050565b600073ffffffffffffffffffffffffffffffffffffffff168273ffffffffffffffffffffffffffffffffffffffff161415611c8e576040517f08c379a0000000000000000000000000000000000000000000000000000000008152600401611c85906127a5565b60405180910390fd5b611c9781611059565b15611cd7576040517f08c379a0000000000000000000000000000000000000000000000000000000008152600401611cce906126a5565b60405180910390fd5b611ce3600083836119f9565b6001600360008473ffffffffffffffffffffffffffffffffffffffff1673ffffffffffffffffffffffffffffffffffffffff1681526020019081526020016000206000828254611d33919061294a565b92505081905550816002600083815260200190815260200160002060006101000a81548173ffffffffffffffffffffffffffffffffffffffff021916908373ffffffffffffffffffffffffffffffffffffffff160217905550808273ffffffffffffffffffffffffffffffffffffffff16600073ffffffffffffffffffffffffffffffffffffffff167fddf252ad1be2c89b69c2b068fc378daa952ba7f163c4a11628f55a4df523b3ef60405160405180910390a4611df4600083836119fe565b5050565b6000808273ffffffffffffffffffffffffffffffffffffffff163b119050919050565b828054611e2790612abb565b90600052602060002090601f016020900481019282611e495760008555611e90565b82601f10611e6257805160ff1916838001178555611e90565b82800160010185558215611e90579182015b82811115611e8f578251825591602001919060010190611e74565b5b509050611e9d9190611ea1565b5090565b5b80821115611eba576000816000905550600101611ea2565b5090565b6000611ed1611ecc846128a5565b612880565b905082815260208101848484011115611ee957600080fd5b611ef4848285612a79565b509392505050565b6000611f0f611f0a846128d6565b612880565b905082815260208101848484011115611f2757600080fd5b611f32848285612a79565b509392505050565b600081359050611f49816130e6565b92915050565b600081359050611f5e816130fd565b92915050565b600081359050611f7381613114565b92915050565b600081519050611f8881613114565b92915050565b600082601f830112611f9f57600080fd5b8135611faf848260208601611ebe565b91505092915050565b600082601f830112611fc957600080fd5b8135611fd9848260208601611efc565b91505092915050565b600081359050611ff18161312b565b92915050565b60006020828403121561200957600080fd5b600061201784828501611f3a565b91505092915050565b6000806040838503121561203357600080fd5b600061204185828601611f3a565b925050602061205285828601611f3a565b9150509250929050565b60008060006060848603121561207157600080fd5b600061207f86828701611f3a565b935050602061209086828701611f3a565b92505060406120a186828701611fe2565b9150509250925092565b600080600080608085870312156120c157600080fd5b60006120cf87828801611f3a565b94505060206120e087828801611f3a565b93505060406120f187828801611fe2565b925050606085013567ffffffffffffffff81111561210e57600080fd5b61211a87828801611f8e565b91505092959194509250565b6000806040838503121561213957600080fd5b600061214785828601611f3a565b925050602061215885828601611f4f565b9150509250929050565b6000806040838503121561217557600080fd5b600061218385828601611f3a565b925050602061219485828601611fe2565b9150509250929050565b6000602082840312156121b057600080fd5b60006121be84828501611f64565b91505092915050565b6000602082840312156121d957600080fd5b60006121e784828501611f79565b91505092915050565b60006020828403121561220257600080fd5b600082013567ffffffffffffffff81111561221c57600080fd5b61222884828501611fb8565b91505092915050565b60006020828403121561224357600080fd5b600061225184828501611fe2565b91505092915050565b61226381612a05565b82525050565b61227281612a17565b82525050565b600061228382612907565b61228d818561291d565b935061229d818560208601612a88565b6122a681612c54565b840191505092915050565b60006122bc82612912565b6122c6818561292e565b93506122d6818560208601612a88565b6122df81612c54565b840191505092915050565b60006122f582612912565b6122ff818561293f565b935061230f818560208601612a88565b80840191505092915050565b600061232860328361292e565b915061233382612c65565b604082019050919050565b600061234b60268361292e565b915061235682612cb4565b604082019050919050565b600061236e60258361292e565b915061237982612d03565b604082019050919050565b6000612391601c8361292e565b915061239c82612d52565b602082019050919050565b60006123b460248361292e565b91506123bf82612d7b565b604082019050919050565b60006123d760198361292e565b91506123e282612dca565b602082019050919050565b60006123fa602c8361292e565b915061240582612df3565b604082019050919050565b600061241d60388361292e565b915061242882612e42565b604082019050919050565b6000612440602a8361292e565b915061244b82612e91565b604082019050919050565b600061246360298361292e565b915061246e82612ee0565b604082019050919050565b600061248660128361292e565b915061249182612f2f565b602082019050919050565b60006124a960208361292e565b91506124b482612f58565b602082019050919050565b60006124cc602c8361292e565b91506124d782612f81565b604082019050919050565b60006124ef60208361292e565b91506124fa82612fd0565b602082019050919050565b6000612512602f8361292e565b915061251d82612ff9565b604082019050919050565b600061253560218361292e565b915061254082613048565b604082019050919050565b600061255860318361292e565b915061256382613097565b604082019050919050565b61257781612a6f565b82525050565b600061258982856122ea565b915061259582846122ea565b91508190509392505050565b60006020820190506125b6600083018461225a565b92915050565b60006080820190506125d1600083018761225a565b6125de602083018661225a565b6125eb604083018561256e565b81810360608301526125fd8184612278565b905095945050505050565b600060208201905061261d6000830184612269565b92915050565b6000602082019050818103600083015261263d81846122b1565b905092915050565b6000602082019050818103600083015261265e8161231b565b9050919050565b6000602082019050818103600083015261267e8161233e565b9050919050565b6000602082019050818103600083015261269e81612361565b9050919050565b600060208201905081810360008301526126be81612384565b9050919050565b600060208201905081810360008301526126de816123a7565b9050919050565b600060208201905081810360008301526126fe816123ca565b9050919050565b6000602082019050818103600083015261271e816123ed565b9050919050565b6000602082019050818103600083015261273e81612410565b9050919050565b6000602082019050818103600083015261275e81612433565b9050919050565b6000602082019050818103600083015261277e81612456565b9050919050565b6000602082019050818103600083015261279e81612479565b9050919050565b600060208201905081810360008301526127be8161249c565b9050919050565b600060208201905081810360008301526127de816124bf565b9050919050565b600060208201905081810360008301526127fe816124e2565b9050919050565b6000602082019050818103600083015261281e81612505565b9050919050565b6000602082019050818103600083015261283e81612528565b9050919050565b6000602082019050818103600083015261285e8161254b565b9050919050565b600060208201905061287a600083018461256e565b92915050565b600061288a61289b565b90506128968282612aed565b919050565b6000604051905090565b600067ffffffffffffffff8211156128c0576128bf612c25565b5b6128c982612c54565b9050602081019050919050565b600067ffffffffffffffff8211156128f1576128f0612c25565b5b6128fa82612c54565b9050602081019050919050565b600081519050919050565b600081519050919050565b600082825260208201905092915050565b600082825260208201905092915050565b600081905092915050565b600061295582612a6f565b915061296083612a6f565b9250827fffffffffffffffffffffffffffffffffffffffffffffffffffffffffffffffff0382111561299557612994612b98565b5b828201905092915050565b60006129ab82612a6f565b91506129b683612a6f565b9250826129c6576129c5612bc7565b5b828204905092915050565b60006129dc82612a6f565b91506129e783612a6f565b9250828210156129fa576129f9612b98565b5b828203905092915050565b6000612a1082612a4f565b9050919050565b60008115159050919050565b60007fffffffff0000000000000000000000000000000000000000000000000000000082169050919050565b600073ffffffffffffffffffffffffffffffffffffffff82169050919050565b6000819050919050565b82818337600083830152505050565b60005b83811015612aa6578082015181840152602081019050612a8b565b83811115612ab5576000848401525b50505050565b60006002820490506001821680612ad357607f821691505b60208210811415612ae757612ae6612bf6565b5b50919050565b612af682612c54565b810181811067ffffffffffffffff82111715612b1557612b14612c25565b5b80604052505050565b6000612b2982612a6f565b91507fffffffffffffffffffffffffffffffffffffffffffffffffffffffffffffffff821415612b5c57612b5b612b98565b5b600182019050919050565b6000612b7282612a6f565b9150612b7d83612a6f565b925082612b8d57612b8c612bc7565b5b828206905092915050565b7f4e487b7100000000000000000000000000000000000000000000000000000000600052601160045260246000fd5b7f4e487b7100000000000000000000000000000000000000000000000000000000600052601260045260246000fd5b7f4e487b7100000000000000000000000000000000000000000000000000000000600052602260045260246000fd5b7f4e487b7100000000000000000000000000000000000000000000000000000000600052604160045260246000fd5b6000601f19601f8301169050919050565b7f4552433732313a207472616e7366657220746f206e6f6e20455243373231526560008201527f63656976657220696d706c656d656e7465720000000000000000000000000000602082015250565b7f4f776e61626c653a206e6577206f776e657220697320746865207a65726f206160008201527f6464726573730000000000000000000000000000000000000000000000000000602082015250565b7f4552433732313a207472616e736665722066726f6d20696e636f72726563742060008201527f6f776e6572000000000000000000000000000000000000000000000000000000602082015250565b7f4552433732313a20746f6b656e20616c7265616479206d696e74656400000000600082015250565b7f4552433732313a207472616e7366657220746f20746865207a65726f2061646460008201527f7265737300000000000000000000000000000000000000000000000000000000602082015250565b7f4552433732313a20617070726f766520746f2063616c6c657200000000000000600082015250565b7f4552433732313a206f70657261746f7220717565727920666f72206e6f6e657860008201527f697374656e7420746f6b656e0000000000000000000000000000000000000000602082015250565b7f4552433732313a20617070726f76652063616c6c6572206973206e6f74206f7760008201527f6e6572206e6f7220617070726f76656420666f7220616c6c0000000000000000602082015250565b7f4552433732313a2062616c616e636520717565727920666f7220746865207a6560008201527f726f206164647265737300000000000000000000000000000000000000000000602082015250565b7f4552433732313a206f776e657220717565727920666f72206e6f6e657869737460008201527f656e7420746f6b656e0000000000000000000000000000000000000000000000602082015250565b7f4e6f20706f646573206861636572206d61730000000000000000000000000000600082015250565b7f4552433732313a206d696e7420746f20746865207a65726f2061646472657373600082015250565b7f4552433732313a20617070726f76656420717565727920666f72206e6f6e657860008201527f697374656e7420746f6b656e0000000000000000000000000000000000000000602082015250565b7f4f776e61626c653a2063616c6c6572206973206e6f7420746865206f776e6572600082015250565b7f4552433732314d657461646174613a2055524920717565727920666f72206e6f60008201527f6e6578697374656e7420746f6b656e0000000000000000000000000000000000602082015250565b7f4552433732313a20617070726f76616c20746f2063757272656e74206f776e6560008201527f7200000000000000000000000000000000000000000000000000000000000000602082015250565b7f4552433732313a207472616e736665722063616c6c6572206973206e6f74206f60008201527f776e6572206e6f7220617070726f766564000000000000000000000000000000602082015250565b6130ef81612a05565b81146130fa57600080fd5b50565b61310681612a17565b811461311157600080fd5b50565b61311d81612a23565b811461312857600080fd5b50565b61313481612a6f565b811461313f57600080fd5b5056fea2646970667358221220c2e3dcef3c9f7413c69b93d7525bf74a2aa69a70d5da595fbfc53d897b3ed0cb64736f6c63430008040033",
  "linkReferences": {},
  "deployedLinkReferences": {}
}