{
  "_format": "hh-sol-artifact-1",
  "contractName": "Ticket",
  "sourceName": "contracts/Ticket.sol",
  "abi": [
    {
      "inputs": [
        {
          "internalType": "string",
          "name": "name",
          "type": "string"
        },
        {
          "internalType": "string",
          "name": "symb",
          "type": "string"
        }
      ],
      "stateMutability": "nonpayable",
      "type": "constructor"
    },
    {
      "anonymous": false,
      "inputs": [
        {
          "indexed": true,
          "internalType": "address",
          "name": "owner",
          "type": "address"
        },
        {
          "indexed": true,
          "internalType": "address",
          "name": "approved",
          "type": "address"
        },
        {
          "indexed": true,
          "internalType": "uint256",
          "name": "tokenId",
          "type": "uint256"
        }
      ],
      "name": "Approval",
      "type": "event"
    },
    {
      "anonymous": false,
      "inputs": [
        {
          "indexed": true,
          "internalType": "address",
          "name": "owner",
          "type": "address"
        },
        {
          "indexed": true,
          "internalType": "address",
          "name": "operator",
          "type": "address"
        },
        {
          "indexed": false,
          "internalType": "bool",
          "name": "approved",
          "type": "bool"
        }
      ],
      "name": "ApprovalForAll",
      "type": "event"
    },
    {
      "anonymous": false,
      "inputs": [
        {
          "indexed": true,
          "internalType": "address",
          "name": "previousOwner",
          "type": "address"
        },
        {
          "indexed": true,
          "internalType": "address",
          "name": "newOwner",
          "type": "address"
        }
      ],
      "name": "OwnershipTransferred",
      "type": "event"
    },
    {
      "anonymous": false,
      "inputs": [
        {
          "indexed": true,
          "internalType": "address",
          "name": "from",
          "type": "address"
        },
        {
          "indexed": true,
          "internalType": "address",
          "name": "to",
          "type": "address"
        },
        {
          "indexed": true,
          "internalType": "uint256",
          "name": "tokenId",
          "type": "uint256"
        }
      ],
      "name": "Transfer",
      "type": "event"
    },
    {
      "inputs": [
        {
          "internalType": "address",
          "name": "to",
          "type": "address"
        },
        {
          "internalType": "uint256",
          "name": "tokenId",
          "type": "uint256"
        }
      ],
      "name": "approve",
      "outputs": [],
      "stateMutability": "nonpayable",
      "type": "function"
    },
    {
      "inputs": [
        {
          "internalType": "address",
          "name": "owner",
          "type": "address"
        }
      ],
      "name": "balanceOf",
      "outputs": [
        {
          "internalType": "uint256",
          "name": "",
          "type": "uint256"
        }
      ],
      "stateMutability": "view",
      "type": "function"
    },
    {
      "inputs": [
        {
          "internalType": "uint256",
          "name": "tokenId",
          "type": "uint256"
        }
      ],
      "name": "getApproved",
      "outputs": [
        {
          "internalType": "address",
          "name": "",
          "type": "address"
        }
      ],
      "stateMutability": "view",
      "type": "function"
    },
    {
      "inputs": [
        {
          "internalType": "address",
          "name": "owner",
          "type": "address"
        },
        {
          "internalType": "address",
          "name": "operator",
          "type": "address"
        }
      ],
      "name": "isApprovedForAll",
      "outputs": [
        {
          "internalType": "bool",
          "name": "",
          "type": "bool"
        }
      ],
      "stateMutability": "view",
      "type": "function"
    },
    {
      "inputs": [],
      "name": "name",
      "outputs": [
        {
          "internalType": "string",
          "name": "",
          "type": "string"
        }
      ],
      "stateMutability": "view",
      "type": "function"
    },
    {
      "inputs": [],
      "name": "owner",
      "outputs": [
        {
          "internalType": "address",
          "name": "",
          "type": "address"
        }
      ],
      "stateMutability": "view",
      "type": "function"
    },
    {
      "inputs": [
        {
          "internalType": "uint256",
          "name": "tokenId",
          "type": "uint256"
        }
      ],
      "name": "ownerOf",
      "outputs": [
        {
          "internalType": "address",
          "name": "",
          "type": "address"
        }
      ],
      "stateMutability": "view",
      "type": "function"
    },
    {
      "inputs": [],
      "name": "renounceOwnership",
      "outputs": [],
      "stateMutability": "nonpayable",
      "type": "function"
    },
    {
      "inputs": [],
      "name": "safeMint",
      "outputs": [],
      "stateMutability": "nonpayable",
      "type": "function"
    },
    {
      "inputs": [
        {
          "internalType": "address",
          "name": "from",
          "type": "address"
        },
        {
          "internalType": "address",
          "name": "to",
          "type": "address"
        },
        {
          "internalType": "uint256",
          "name": "tokenId",
          "type": "uint256"
        }
      ],
      "name": "safeTransferFrom",
      "outputs": [],
      "stateMutability": "nonpayable",
      "type": "function"
    },
    {
      "inputs": [
        {
          "internalType": "address",
          "name": "from",
          "type": "address"
        },
        {
          "internalType": "address",
          "name": "to",
          "type": "address"
        },
        {
          "internalType": "uint256",
          "name": "tokenId",
          "type": "uint256"
        },
        {
          "internalType": "bytes",
          "name": "_data",
          "type": "bytes"
        }
      ],
      "name": "safeTransferFrom",
      "outputs": [],
      "stateMutability": "nonpayable",
      "type": "function"
    },
    {
      "inputs": [
        {
          "internalType": "address",
          "name": "operator",
          "type": "address"
        },
        {
          "internalType": "bool",
          "name": "approved",
          "type": "bool"
        }
      ],
      "name": "setApprovalForAll",
      "outputs": [],
      "stateMutability": "nonpayable",
      "type": "function"
    },
    {
      "inputs": [
        {
          "internalType": "bytes4",
          "name": "interfaceId",
          "type": "bytes4"
        }
      ],
      "name": "supportsInterface",
      "outputs": [
        {
          "internalType": "bool",
          "name": "",
          "type": "bool"
        }
      ],
      "stateMutability": "view",
      "type": "function"
    },
    {
      "inputs": [],
      "name": "symbol",
      "outputs": [
        {
          "internalType": "string",
          "name": "",
          "type": "string"
        }
      ],
      "stateMutability": "view",
      "type": "function"
    },
    {
      "inputs": [
        {
          "internalType": "uint256",
          "name": "tokenId",
          "type": "uint256"
        }
      ],
      "name": "tokenURI",
      "outputs": [
        {
          "internalType": "string",
          "name": "",
          "type": "string"
        }
      ],
      "stateMutability": "view",
      "type": "function"
    },
    {
      "inputs": [
        {
          "internalType": "address",
          "name": "from",
          "type": "address"
        },
        {
          "internalType": "address",
          "name": "to",
          "type": "address"
        },
        {
          "internalType": "uint256",
          "name": "tokenId",
          "type": "uint256"
        }
      ],
      "name": "transferFrom",
      "outputs": [],
      "stateMutability": "nonpayable",
      "type": "function"
    },
    {
      "inputs": [
        {
          "internalType": "address",
          "name": "newOwner",
          "type": "address"
        }
      ],
      "name": "transferOwnership",
      "outputs": [],
      "stateMutability": "nonpayable",
      "type": "function"
    }
  ],
  "bytecode": "0x60806040523480156200001157600080fd5b506040516200313538038062003135833981810160405281019062000037919062000285565b818181600090805190602001906200005192919062000163565b5080600190805190602001906200006a92919062000163565b5050506200008d620000816200009560201b60201c565b6200009d60201b60201c565b505062000468565b600033905090565b6000600660009054906101000a900473ffffffffffffffffffffffffffffffffffffffff16905081600660006101000a81548173ffffffffffffffffffffffffffffffffffffffff021916908373ffffffffffffffffffffffffffffffffffffffff1602179055508173ffffffffffffffffffffffffffffffffffffffff168173ffffffffffffffffffffffffffffffffffffffff167f8be0079c531659141344cd1fd0a4f28419497f9722a3daafe3b4186f6b6457e060405160405180910390a35050565b82805462000171906200038d565b90600052602060002090601f016020900481019282620001955760008555620001e1565b82601f10620001b057805160ff1916838001178555620001e1565b82800160010185558215620001e1579182015b82811115620001e0578251825591602001919060010190620001c3565b5b509050620001f09190620001f4565b5090565b5b808211156200020f576000816000905550600101620001f5565b5090565b60006200022a620002248462000321565b620002f8565b9050828152602081018484840111156200024357600080fd5b6200025084828562000357565b509392505050565b600082601f8301126200026a57600080fd5b81516200027c84826020860162000213565b91505092915050565b600080604083850312156200029957600080fd5b600083015167ffffffffffffffff811115620002b457600080fd5b620002c28582860162000258565b925050602083015167ffffffffffffffff811115620002e057600080fd5b620002ee8582860162000258565b9150509250929050565b60006200030462000317565b9050620003128282620003c3565b919050565b6000604051905090565b600067ffffffffffffffff8211156200033f576200033e62000428565b5b6200034a8262000457565b9050602081019050919050565b60005b83811015620003775780820151818401526020810190506200035a565b8381111562000387576000848401525b50505050565b60006002820490506001821680620003a657607f821691505b60208210811415620003bd57620003bc620003f9565b5b50919050565b620003ce8262000457565b810181811067ffffffffffffffff82111715620003f057620003ef62000428565b5b80604052505050565b7f4e487b7100000000000000000000000000000000000000000000000000000000600052602260045260246000fd5b7f4e487b7100000000000000000000000000000000000000000000000000000000600052604160045260246000fd5b6000601f19601f8301169050919050565b612cbd80620004786000396000f3fe608060405234801561001057600080fd5b506004361061010b5760003560e01c806370a08231116100a2578063a22cb46511610071578063a22cb46514610292578063b88d4fde146102ae578063c87b56dd146102ca578063e985e9c5146102fa578063f2fde38b1461032a5761010b565b806370a082311461021c578063715018a61461024c5780638da5cb5b1461025657806395d89b41146102745761010b565b806323b872dd116100de57806323b872dd146101aa57806342842e0e146101c65780636352211e146101e25780636871ee40146102125761010b565b806301ffc9a71461011057806306fdde0314610140578063081812fc1461015e578063095ea7b31461018e575b600080fd5b61012a60048036038101906101259190611d55565b610346565b604051610137919061217e565b60405180910390f35b610148610428565b6040516101559190612199565b60405180910390f35b61017860048036038101906101739190611da7565b6104ba565b6040516101859190612117565b60405180910390f35b6101a860048036038101906101a39190611d19565b61053f565b005b6101c460048036038101906101bf9190611c13565b610657565b005b6101e060048036038101906101db9190611c13565b6106b7565b005b6101fc60048036038101906101f79190611da7565b6106d7565b6040516102099190612117565b60405180910390f35b61021a610789565b005b61023660048036038101906102319190611bae565b61080a565b60405161024391906123db565b60405180910390f35b6102546108c2565b005b61025e61094a565b60405161026b9190612117565b60405180910390f35b61027c610974565b6040516102899190612199565b60405180910390f35b6102ac60048036038101906102a79190611cdd565b610a06565b005b6102c860048036038101906102c39190611c62565b610a1c565b005b6102e460048036038101906102df9190611da7565b610a7e565b6040516102f19190612199565b60405180910390f35b610314600480360381019061030f9190611bd7565b610b25565b604051610321919061217e565b60405180910390f35b610344600480360381019061033f9190611bae565b610bb9565b005b60007f80ac58cd000000000000000000000000000000000000000000000000000000007bffffffffffffffffffffffffffffffffffffffffffffffffffffffff1916827bffffffffffffffffffffffffffffffffffffffffffffffffffffffff1916148061041157507f5b5e139f000000000000000000000000000000000000000000000000000000007bffffffffffffffffffffffffffffffffffffffffffffffffffffffff1916827bffffffffffffffffffffffffffffffffffffffffffffffffffffffff1916145b80610421575061042082610cb1565b5b9050919050565b60606000805461043790612600565b80601f016020809104026020016040519081016040528092919081815260200182805461046390612600565b80156104b05780601f10610485576101008083540402835291602001916104b0565b820191906000526020600020905b81548152906001019060200180831161049357829003601f168201915b5050505050905090565b60006104c582610d1b565b610504576040517f08c379a00000000000000000000000000000000000000000000000000000000081526004016104fb9061233b565b60405180910390fd5b6004600083815260200190815260200160002060009054906101000a900473ffffffffffffffffffffffffffffffffffffffff169050919050565b600061054a826106d7565b90508073ffffffffffffffffffffffffffffffffffffffff168373ffffffffffffffffffffffffffffffffffffffff1614156105bb576040517f08c379a00000000000000000000000000000000000000000000000000000000081526004016105b29061239b565b60405180910390fd5b8073ffffffffffffffffffffffffffffffffffffffff166105da610d87565b73ffffffffffffffffffffffffffffffffffffffff161480610609575061060881610603610d87565b610b25565b5b610648576040517f08c379a000000000000000000000000000000000000000000000000000000000815260040161063f9061229b565b60405180910390fd5b6106528383610d8f565b505050565b610668610662610d87565b82610e48565b6106a7576040517f08c379a000000000000000000000000000000000000000000000000000000000815260040161069e906123bb565b60405180910390fd5b6106b2838383610f26565b505050565b6106d283838360405180602001604052806000815250610a1c565b505050565b6000806002600084815260200190815260200160002060009054906101000a900473ffffffffffffffffffffffffffffffffffffffff169050600073ffffffffffffffffffffffffffffffffffffffff168173ffffffffffffffffffffffffffffffffffffffff161415610780576040517f08c379a0000000000000000000000000000000000000000000000000000000008152600401610777906122db565b60405180910390fd5b80915050919050565b6000610795600761118d565b905060058111156107db576040517f08c379a00000000000000000000000000000000000000000000000000000000081526004016107d2906122fb565b60405180910390fd5b6107e5600761119b565b60006107f1600761118d565b90506107fc816111b1565b610806338261124a565b5050565b60008073ffffffffffffffffffffffffffffffffffffffff168273ffffffffffffffffffffffffffffffffffffffff16141561087b576040517f08c379a0000000000000000000000000000000000000000000000000000000008152600401610872906122bb565b60405180910390fd5b600360008373ffffffffffffffffffffffffffffffffffffffff1673ffffffffffffffffffffffffffffffffffffffff168152602001908152602001600020549050919050565b6108ca610d87565b73ffffffffffffffffffffffffffffffffffffffff166108e861094a565b73ffffffffffffffffffffffffffffffffffffffff161461093e576040517f08c379a00000000000000000000000000000000000000000000000000000000081526004016109359061235b565b60405180910390fd5b6109486000611268565b565b6000600660009054906101000a900473ffffffffffffffffffffffffffffffffffffffff16905090565b60606001805461098390612600565b80601f01602080910402602001604051908101604052809291908181526020018280546109af90612600565b80156109fc5780601f106109d1576101008083540402835291602001916109fc565b820191906000526020600020905b8154815290600101906020018083116109df57829003601f168201915b5050505050905090565b610a18610a11610d87565b838361132e565b5050565b610a2d610a27610d87565b83610e48565b610a6c576040517f08c379a0000000000000000000000000000000000000000000000000000000008152600401610a63906123bb565b60405180910390fd5b610a788484848461149b565b50505050565b6060610a8982610d1b565b610ac8576040517f08c379a0000000000000000000000000000000000000000000000000000000008152600401610abf9061237b565b60405180910390fd5b6000610ad26114f7565b90506000815111610af25760405180602001604052806000815250610b1d565b80610afc8461150e565b604051602001610b0d9291906120f3565b6040516020818303038152906040525b915050919050565b6000600560008473ffffffffffffffffffffffffffffffffffffffff1673ffffffffffffffffffffffffffffffffffffffff16815260200190815260200160002060008373ffffffffffffffffffffffffffffffffffffffff1673ffffffffffffffffffffffffffffffffffffffff16815260200190815260200160002060009054906101000a900460ff16905092915050565b610bc1610d87565b73ffffffffffffffffffffffffffffffffffffffff16610bdf61094a565b73ffffffffffffffffffffffffffffffffffffffff1614610c35576040517f08c379a0000000000000000000000000000000000000000000000000000000008152600401610c2c9061235b565b60405180910390fd5b600073ffffffffffffffffffffffffffffffffffffffff168173ffffffffffffffffffffffffffffffffffffffff161415610ca5576040517f08c379a0000000000000000000000000000000000000000000000000000000008152600401610c9c906121db565b60405180910390fd5b610cae81611268565b50565b60007f01ffc9a7000000000000000000000000000000000000000000000000000000007bffffffffffffffffffffffffffffffffffffffffffffffffffffffff1916827bffffffffffffffffffffffffffffffffffffffffffffffffffffffff1916149050919050565b60008073ffffffffffffffffffffffffffffffffffffffff166002600084815260200190815260200160002060009054906101000a900473ffffffffffffffffffffffffffffffffffffffff1673ffffffffffffffffffffffffffffffffffffffff1614159050919050565b600033905090565b816004600083815260200190815260200160002060006101000a81548173ffffffffffffffffffffffffffffffffffffffff021916908373ffffffffffffffffffffffffffffffffffffffff160217905550808273ffffffffffffffffffffffffffffffffffffffff16610e02836106d7565b73ffffffffffffffffffffffffffffffffffffffff167f8c5be1e5ebec7d5bd14f71427d1e84f3dd0314c0f7b2291e5b200ac8c7c3b92560405160405180910390a45050565b6000610e5382610d1b565b610e92576040517f08c379a0000000000000000000000000000000000000000000000000000000008152600401610e899061227b565b60405180910390fd5b6000610e9d836106d7565b90508073ffffffffffffffffffffffffffffffffffffffff168473ffffffffffffffffffffffffffffffffffffffff161480610f0c57508373ffffffffffffffffffffffffffffffffffffffff16610ef4846104ba565b73ffffffffffffffffffffffffffffffffffffffff16145b80610f1d5750610f1c8185610b25565b5b91505092915050565b8273ffffffffffffffffffffffffffffffffffffffff16610f46826106d7565b73ffffffffffffffffffffffffffffffffffffffff1614610f9c576040517f08c379a0000000000000000000000000000000000000000000000000000000008152600401610f93906121fb565b60405180910390fd5b600073ffffffffffffffffffffffffffffffffffffffff168273ffffffffffffffffffffffffffffffffffffffff16141561100c576040517f08c379a00000000000000000000000000000000000000000000000000000000081526004016110039061223b565b60405180910390fd5b6110178383836116bb565b611022600082610d8f565b6001600360008573ffffffffffffffffffffffffffffffffffffffff1673ffffffffffffffffffffffffffffffffffffffff16815260200190815260200160002060008282546110729190612516565b925050819055506001600360008473ffffffffffffffffffffffffffffffffffffffff1673ffffffffffffffffffffffffffffffffffffffff16815260200190815260200160002060008282546110c9919061248f565b92505081905550816002600083815260200190815260200160002060006101000a81548173ffffffffffffffffffffffffffffffffffffffff021916908373ffffffffffffffffffffffffffffffffffffffff160217905550808273ffffffffffffffffffffffffffffffffffffffff168473ffffffffffffffffffffffffffffffffffffffff167fddf252ad1be2c89b69c2b068fc378daa952ba7f163c4a11628f55a4df523b3ef60405160405180910390a46111888383836116c0565b505050565b600081600001549050919050565b6001816000016000828254019250508190555050565b611247816040516024016111c591906123db565b6040516020818303038152906040527ff5b1bba9000000000000000000000000000000000000000000000000000000007bffffffffffffffffffffffffffffffffffffffffffffffffffffffff19166020820180517bffffffffffffffffffffffffffffffffffffffffffffffffffffffff83818316178352505050506116c5565b50565b6112648282604051806020016040528060008152506116ee565b5050565b6000600660009054906101000a900473ffffffffffffffffffffffffffffffffffffffff16905081600660006101000a81548173ffffffffffffffffffffffffffffffffffffffff021916908373ffffffffffffffffffffffffffffffffffffffff1602179055508173ffffffffffffffffffffffffffffffffffffffff168173ffffffffffffffffffffffffffffffffffffffff167f8be0079c531659141344cd1fd0a4f28419497f9722a3daafe3b4186f6b6457e060405160405180910390a35050565b8173ffffffffffffffffffffffffffffffffffffffff168373ffffffffffffffffffffffffffffffffffffffff16141561139d576040517f08c379a00000000000000000000000000000000000000000000000000000000081526004016113949061225b565b60405180910390fd5b80600560008573ffffffffffffffffffffffffffffffffffffffff1673ffffffffffffffffffffffffffffffffffffffff16815260200190815260200160002060008473ffffffffffffffffffffffffffffffffffffffff1673ffffffffffffffffffffffffffffffffffffffff16815260200190815260200160002060006101000a81548160ff0219169083151502179055508173ffffffffffffffffffffffffffffffffffffffff168373ffffffffffffffffffffffffffffffffffffffff167f17307eab39ab6107e8899845ad3d59bd9653f200f220920489ca2b5937696c318360405161148e919061217e565b60405180910390a3505050565b6114a6848484610f26565b6114b284848484611749565b6114f1576040517f08c379a00000000000000000000000000000000000000000000000000000000081526004016114e8906121bb565b60405180910390fd5b50505050565b606060405180602001604052806000815250905090565b60606000821415611556576040518060400160405280600181526020017f300000000000000000000000000000000000000000000000000000000000000081525090506116b6565b600082905060005b6000821461158857808061157190612663565b915050600a8261158191906124e5565b915061155e565b60008167ffffffffffffffff8111156115ca577f4e487b7100000000000000000000000000000000000000000000000000000000600052604160045260246000fd5b6040519080825280601f01601f1916602001820160405280156115fc5781602001600182028036833780820191505090505b5090505b600085146116af576001826116159190612516565b9150600a8561162491906126ac565b6030611630919061248f565b60f81b81838151811061166c577f4e487b7100000000000000000000000000000000000000000000000000000000600052603260045260246000fd5b60200101907effffffffffffffffffffffffffffffffffffffffffffffffffffffffffffff1916908160001a905350600a856116a891906124e5565b9450611600565b8093505050505b919050565b505050565b505050565b60008151905060006a636f6e736f6c652e6c6f679050602083016000808483855afa5050505050565b6116f883836118e0565b6117056000848484611749565b611744576040517f08c379a000000000000000000000000000000000000000000000000000000000815260040161173b906121bb565b60405180910390fd5b505050565b600061176a8473ffffffffffffffffffffffffffffffffffffffff16611aba565b156118d3578373ffffffffffffffffffffffffffffffffffffffff1663150b7a02611793610d87565b8786866040518563ffffffff1660e01b81526004016117b59493929190612132565b602060405180830381600087803b1580156117cf57600080fd5b505af192505050801561180057506040513d601f19601f820116820180604052508101906117fd9190611d7e565b60015b611883573d8060008114611830576040519150601f19603f3d011682016040523d82523d6000602084013e611835565b606091505b5060008151141561187b576040517f08c379a0000000000000000000000000000000000000000000000000000000008152600401611872906121bb565b60405180910390fd5b805181602001fd5b63150b7a0260e01b7bffffffffffffffffffffffffffffffffffffffffffffffffffffffff1916817bffffffffffffffffffffffffffffffffffffffffffffffffffffffff1916149150506118d8565b600190505b949350505050565b600073ffffffffffffffffffffffffffffffffffffffff168273ffffffffffffffffffffffffffffffffffffffff161415611950576040517f08c379a00000000000000000000000000000000000000000000000000000000081526004016119479061231b565b60405180910390fd5b61195981610d1b565b15611999576040517f08c379a00000000000000000000000000000000000000000000000000000000081526004016119909061221b565b60405180910390fd5b6119a5600083836116bb565b6001600360008473ffffffffffffffffffffffffffffffffffffffff1673ffffffffffffffffffffffffffffffffffffffff16815260200190815260200160002060008282546119f5919061248f565b92505081905550816002600083815260200190815260200160002060006101000a81548173ffffffffffffffffffffffffffffffffffffffff021916908373ffffffffffffffffffffffffffffffffffffffff160217905550808273ffffffffffffffffffffffffffffffffffffffff16600073ffffffffffffffffffffffffffffffffffffffff167fddf252ad1be2c89b69c2b068fc378daa952ba7f163c4a11628f55a4df523b3ef60405160405180910390a4611ab6600083836116c0565b5050565b6000808273ffffffffffffffffffffffffffffffffffffffff163b119050919050565b6000611af0611aeb8461241b565b6123f6565b905082815260208101848484011115611b0857600080fd5b611b138482856125be565b509392505050565b600081359050611b2a81612c2b565b92915050565b600081359050611b3f81612c42565b92915050565b600081359050611b5481612c59565b92915050565b600081519050611b6981612c59565b92915050565b600082601f830112611b8057600080fd5b8135611b90848260208601611add565b91505092915050565b600081359050611ba881612c70565b92915050565b600060208284031215611bc057600080fd5b6000611bce84828501611b1b565b91505092915050565b60008060408385031215611bea57600080fd5b6000611bf885828601611b1b565b9250506020611c0985828601611b1b565b9150509250929050565b600080600060608486031215611c2857600080fd5b6000611c3686828701611b1b565b9350506020611c4786828701611b1b565b9250506040611c5886828701611b99565b9150509250925092565b60008060008060808587031215611c7857600080fd5b6000611c8687828801611b1b565b9450506020611c9787828801611b1b565b9350506040611ca887828801611b99565b925050606085013567ffffffffffffffff811115611cc557600080fd5b611cd187828801611b6f565b91505092959194509250565b60008060408385031215611cf057600080fd5b6000611cfe85828601611b1b565b9250506020611d0f85828601611b30565b9150509250929050565b60008060408385031215611d2c57600080fd5b6000611d3a85828601611b1b565b9250506020611d4b85828601611b99565b9150509250929050565b600060208284031215611d6757600080fd5b6000611d7584828501611b45565b91505092915050565b600060208284031215611d9057600080fd5b6000611d9e84828501611b5a565b91505092915050565b600060208284031215611db957600080fd5b6000611dc784828501611b99565b91505092915050565b611dd98161254a565b82525050565b611de88161255c565b82525050565b6000611df98261244c565b611e038185612462565b9350611e138185602086016125cd565b611e1c81612799565b840191505092915050565b6000611e3282612457565b611e3c8185612473565b9350611e4c8185602086016125cd565b611e5581612799565b840191505092915050565b6000611e6b82612457565b611e758185612484565b9350611e858185602086016125cd565b80840191505092915050565b6000611e9e603283612473565b9150611ea9826127aa565b604082019050919050565b6000611ec1602683612473565b9150611ecc826127f9565b604082019050919050565b6000611ee4602583612473565b9150611eef82612848565b604082019050919050565b6000611f07601c83612473565b9150611f1282612897565b602082019050919050565b6000611f2a602483612473565b9150611f35826128c0565b604082019050919050565b6000611f4d601983612473565b9150611f588261290f565b602082019050919050565b6000611f70602c83612473565b9150611f7b82612938565b604082019050919050565b6000611f93603883612473565b9150611f9e82612987565b604082019050919050565b6000611fb6602a83612473565b9150611fc1826129d6565b604082019050919050565b6000611fd9602983612473565b9150611fe482612a25565b604082019050919050565b6000611ffc601283612473565b915061200782612a74565b602082019050919050565b600061201f602083612473565b915061202a82612a9d565b602082019050919050565b6000612042602c83612473565b915061204d82612ac6565b604082019050919050565b6000612065602083612473565b915061207082612b15565b602082019050919050565b6000612088602f83612473565b915061209382612b3e565b604082019050919050565b60006120ab602183612473565b91506120b682612b8d565b604082019050919050565b60006120ce603183612473565b91506120d982612bdc565b604082019050919050565b6120ed816125b4565b82525050565b60006120ff8285611e60565b915061210b8284611e60565b91508190509392505050565b600060208201905061212c6000830184611dd0565b92915050565b60006080820190506121476000830187611dd0565b6121546020830186611dd0565b61216160408301856120e4565b81810360608301526121738184611dee565b905095945050505050565b60006020820190506121936000830184611ddf565b92915050565b600060208201905081810360008301526121b38184611e27565b905092915050565b600060208201905081810360008301526121d481611e91565b9050919050565b600060208201905081810360008301526121f481611eb4565b9050919050565b6000602082019050818103600083015261221481611ed7565b9050919050565b6000602082019050818103600083015261223481611efa565b9050919050565b6000602082019050818103600083015261225481611f1d565b9050919050565b6000602082019050818103600083015261227481611f40565b9050919050565b6000602082019050818103600083015261229481611f63565b9050919050565b600060208201905081810360008301526122b481611f86565b9050919050565b600060208201905081810360008301526122d481611fa9565b9050919050565b600060208201905081810360008301526122f481611fcc565b9050919050565b6000602082019050818103600083015261231481611fef565b9050919050565b6000602082019050818103600083015261233481612012565b9050919050565b6000602082019050818103600083015261235481612035565b9050919050565b6000602082019050818103600083015261237481612058565b9050919050565b600060208201905081810360008301526123948161207b565b9050919050565b600060208201905081810360008301526123b48161209e565b9050919050565b600060208201905081810360008301526123d4816120c1565b9050919050565b60006020820190506123f060008301846120e4565b92915050565b6000612400612411565b905061240c8282612632565b919050565b6000604051905090565b600067ffffffffffffffff8211156124365761243561276a565b5b61243f82612799565b9050602081019050919050565b600081519050919050565b600081519050919050565b600082825260208201905092915050565b600082825260208201905092915050565b600081905092915050565b600061249a826125b4565b91506124a5836125b4565b9250827fffffffffffffffffffffffffffffffffffffffffffffffffffffffffffffffff038211156124da576124d96126dd565b5b828201905092915050565b60006124f0826125b4565b91506124fb836125b4565b92508261250b5761250a61270c565b5b828204905092915050565b6000612521826125b4565b915061252c836125b4565b92508282101561253f5761253e6126dd565b5b828203905092915050565b600061255582612594565b9050919050565b60008115159050919050565b60007fffffffff0000000000000000000000000000000000000000000000000000000082169050919050565b600073ffffffffffffffffffffffffffffffffffffffff82169050919050565b6000819050919050565b82818337600083830152505050565b60005b838110156125eb5780820151818401526020810190506125d0565b838111156125fa576000848401525b50505050565b6000600282049050600182168061261857607f821691505b6020821081141561262c5761262b61273b565b5b50919050565b61263b82612799565b810181811067ffffffffffffffff8211171561265a5761265961276a565b5b80604052505050565b600061266e826125b4565b91507fffffffffffffffffffffffffffffffffffffffffffffffffffffffffffffffff8214156126a1576126a06126dd565b5b600182019050919050565b60006126b7826125b4565b91506126c2836125b4565b9250826126d2576126d161270c565b5b828206905092915050565b7f4e487b7100000000000000000000000000000000000000000000000000000000600052601160045260246000fd5b7f4e487b7100000000000000000000000000000000000000000000000000000000600052601260045260246000fd5b7f4e487b7100000000000000000000000000000000000000000000000000000000600052602260045260246000fd5b7f4e487b7100000000000000000000000000000000000000000000000000000000600052604160045260246000fd5b6000601f19601f8301169050919050565b7f4552433732313a207472616e7366657220746f206e6f6e20455243373231526560008201527f63656976657220696d706c656d656e7465720000000000000000000000000000602082015250565b7f4f776e61626c653a206e6577206f776e657220697320746865207a65726f206160008201527f6464726573730000000000000000000000000000000000000000000000000000602082015250565b7f4552433732313a207472616e736665722066726f6d20696e636f72726563742060008201527f6f776e6572000000000000000000000000000000000000000000000000000000602082015250565b7f4552433732313a20746f6b656e20616c7265616479206d696e74656400000000600082015250565b7f4552433732313a207472616e7366657220746f20746865207a65726f2061646460008201527f7265737300000000000000000000000000000000000000000000000000000000602082015250565b7f4552433732313a20617070726f766520746f2063616c6c657200000000000000600082015250565b7f4552433732313a206f70657261746f7220717565727920666f72206e6f6e657860008201527f697374656e7420746f6b656e0000000000000000000000000000000000000000602082015250565b7f4552433732313a20617070726f76652063616c6c6572206973206e6f74206f7760008201527f6e6572206e6f7220617070726f76656420666f7220616c6c0000000000000000602082015250565b7f4552433732313a2062616c616e636520717565727920666f7220746865207a6560008201527f726f206164647265737300000000000000000000000000000000000000000000602082015250565b7f4552433732313a206f776e657220717565727920666f72206e6f6e657869737460008201527f656e7420746f6b656e0000000000000000000000000000000000000000000000602082015250565b7f4e6f20706f646573206861636572206d61730000000000000000000000000000600082015250565b7f4552433732313a206d696e7420746f20746865207a65726f2061646472657373600082015250565b7f4552433732313a20617070726f76656420717565727920666f72206e6f6e657860008201527f697374656e7420746f6b656e0000000000000000000000000000000000000000602082015250565b7f4f776e61626c653a2063616c6c6572206973206e6f7420746865206f776e6572600082015250565b7f4552433732314d657461646174613a2055524920717565727920666f72206e6f60008201527f6e6578697374656e7420746f6b656e0000000000000000000000000000000000602082015250565b7f4552433732313a20617070726f76616c20746f2063757272656e74206f776e6560008201527f7200000000000000000000000000000000000000000000000000000000000000602082015250565b7f4552433732313a207472616e736665722063616c6c6572206973206e6f74206f60008201527f776e6572206e6f7220617070726f766564000000000000000000000000000000602082015250565b612c348161254a565b8114612c3f57600080fd5b50565b612c4b8161255c565b8114612c5657600080fd5b50565b612c6281612568565b8114612c6d57600080fd5b50565b612c79816125b4565b8114612c8457600080fd5b5056fea2646970667358221220507038e5208b25f88d87f5986ee4e69399881a2301b26f79d398aeb9c471284a64736f6c63430008040033",
  "linkReferences": {},
  "deployedLinkReferences": {}
}